S00D00004C616230362E73726563A2
S11300001DC400003CC400003AC4000038C4000011
S113001036C4000034C4000032C4000030C4000000
S11300202EC400002CC400002AC4000028C4000010
S113003026C4000024C4000022C4000020C4000020
S11300401EC400001CC400001AC4000018C4000030
S113005016C4000014C4000012C4000010C4000040
S11300600C946B0F0DC4000044C4000008C40000CD
S113007006C4000004C4000002C4000000C4000060
S1130080FEC30000FCC30000FAC30000F8C3000074
S1130090F6C30000F4C30000F2C30000F0C3000084
S11300A0EEC30000ECC30000EAC30000E8C3000094
S11300B0E6C30000E4C30000E2C300000C94CA13CA
S11300C0DEC30000DCC30000DAC30000D8C30000B4
S11300D0D6C30000D4C30000A5C40000DCC40000E3
S11300E0CEC300004D0A6E0A8E0A8E0A340A550ADF
S11300F08E0A830A8E0AE40A200A8E0A0C0AE40A8B
S11301008E0AE40A8E0A8E0A8E0A8E0A030A8E0A60
S11301108E0A8E0A8E0A8E0AE40A8E0A8E0A8E0AC5
S11301208E0A8E0A8E0A8E0A8E0A8E0A8E0A8E0A0B
S11301308E0A8E0A8E0A8E0A8E0A8E0A8E0A8E0AFB
S11301408E0A8E0A8E0A8E0A8E0A8E0A8E0A8E0AEB
S11301508E0A8E0A8E0A8E0A8E0A8E0A8E0A8E0ADB
S11301608E0A8E0A8E0A8E0A8E0A8E0A8E0A8E0ACB
S11301708E0A8E0A8E0A8E0A8E0A8E0A8E0A8E0ABB
S11301808E0A8E0A8E0A8E0A8E0A8E0A8E0A8E0AAB
S11301908E0A8E0A8E0A8E0A8E0A8E0A8E0A8E0A9B
S11301A08E0A8E0A8E0A8E0A8E0A8E0A8E0A8E0A8B
S11301B08E0A8E0A8E0A8E0A8E0A8E0A8E0A8E0A7B
S11301C08E0A8E0A8E0A8E0A8E0A8E0A8E0A8E0A6B
S11301D08E0A8E0A8E0A8E0A8E0A8E0A8E0A8E0A5B
S11301E0830A4C61726765737420616C6C6F636120
S11301F0626C6520626C6F636B3A20202025640A70
S1130200004C61726765737420667265656C69730E
S11302107420626C6F636B3A2020202025640A00EE
S11302204C61726765737420626C6F636B20696ED6
S113023020667265656C6973743A2025640A00420D
S11302406C6F636B7320696E20667265656C69738D
S1130250743A202020202020202025640A004672A1
S113026065656C6973742073697A653A2025640A3C
S1130270000A467265656C6973740A004368616EAE
S1130280676520202025640A0050726576696F75C1
S1130290732025640A0043757272656E74202025EC
S11302A0640A000A5370616365206265747765654A
S11302B06E20737461636B20616E64206865617085
S11302C03A0A00467265653A2025640A005573654A
S11302D0643A2025640A000A4865617020737461D9
S11302E0746973746963730A000A556E61626C659C
S11302F020746F2073656C65637420636172642E6F
S11303000A000A556E61626C6520746F2073656C17
S113031065637420636172642E0A000A004361728B
S113032064205549443A20005549442073616B3A8E
S1130330203078253032580A000A55494420736920
S11303407A653A203078253032580A00546F206696
S11303506577206F7220746F206D616E79206172F1
S113036067756D656E747320666F72207468697347
S113037020636F6D6D616E640A557365203C68651A
S11303806C703E0A000A00436F6D6D616E64206EEE
S11303906F7420696D706C656D656E7465642E0A8A
S11303A0557365203C68656C703E20746F206765EA
S11303B0742068656C702E0A000A0025530A000A2E
S11303C0006176722D6C6962632076657273696F61
S11303D06E3A202553206176722D6763632076651B
S11303E07273696F6E3A20342E392E320A00322E1F
S11303F0302E300056657273696F6E3A2025532093
S11304006275696C74206F6E3A2025532025530A57
S1130410004749542056455253494F4E21205265B6
S1130420706C61636521004A616E20313220323084
S113043031370030313A34333A3436000A00203A46
S11304402000496D706C656D656E74656420636F22
S11304506D6D616E64733A0A000A005072696E74BD
S1130460206D656D6F727920757361676520616EAB
S113047064206368616E676520636F6D7061726587
S11304806420746F2070726576696F757320636180
S11304906C6C006D656D0041636365737320646506
S11304A06E69656421005072696E742073746F7292
S11304B06564206163636573732063617264206C97
S11304C0697374007072696E740052656D6F76653D
S11304D0204D696661726520636172642066726F83
S11304E06D206C6973742055736167653A20726D71
S11304F0203C63617264207569643E00726D004142
S11305006464204D69636172652063617264207460
S11305106F206C6973742E2055736167653A20618E
S11305206464203C6361726420686F6C646572204B
S11305306E616D653E006164640052656164204DC6
S11305406966617265206361726420616E64207003
S113055072696E742043617264204944007265615B
S1130560640046696E64206D61746368696E672017
S11305706D6F6E74682066726F6D206C6F6F6B7533
S113058070206C6973742E2055736167653A206D11
S11305906F6E7468203C737472696E673E006D6F91
S11305A06E7468007072696E742041534349492027
S11305B07461626C65730061736369690050726988
S11305C06E742046572076657273696F6E00766587
S11305D07273696F6E004765742068656C7000689B
S11305E0656C70000E060506FF05F905F505F005B6
S11305F04A756E65004D617900417072696C004DF9
S113060061726368004665627275617279004A615D
S11306106E7561727900557074696D653A20256C48
S11306207520730A004D616B73696D20543F656CCE
S11306306A61626F7600557365206261636B7370E3
S113064061636520746F2064656C65746520656EF4
S113065074727920616E6420656E74657220746FA3
S113066020636F6E6669726D2E0A4172726F772015
S11306706B65797320616E642064656C20646F20FF
S11306806E6F7420776F726B2063757272656E740F
S11306906C792E0A5573652048656C7020636F6D04
S11306A06D616E6420746F206C6561726E2061628E
S11306B06F757420636F6D6D616E6473004D616B53
S11306C073696D20543F656C6A61626F76000A43FA
S11306D0617264206E6F7420666F756E6420696E3B
S11306E020746865206C6973742E20506C65617386
S11306F0652074727920616761696E2E0A000A00B0
S113070020686F6C64657220000A52656D6F7669AB
S11307106E672063617264205549443A20000A00E0
S113072020686F6C64657220000A52656D6F76698B
S11307306E672063617264205549443A20000A437D
S1130740617264206C69737420697320656D7074C0
S1130750792E0A000A41646465642063617264004E
S11307600A4361726473206C697374206973206630
S1130770756C6C2E20596F75206861766520746FD6
S11307802072656D6F766520736F6D65206361728D
S113079064732C206265666F726520796F752063BF
S11307A0616E20616464206E6577206F6E65732EC0
S11307B00A000A5363616E6E65642063617264208B
S11307C0616C726164792065786973747320696EF1
S11307D020746865206C6973742E20506C65617395
S11307E065207363616E20616E6F74686572206347
S11307F0617264210A31000A416363657373206383
S11308006172647320696E206C6973743A0A000A19
S113081043617264206C69737420697320656D7020
S113082074792E0A000A0020686F6C6465722000D7
S11308305D3A20002E205549445B000011241FBE60
S1130840CFEFD1E2DEBFCDBF00E00CBF13E0A0E0EC
S1130850B2E0E8EBF7E300E00BBF02C007900D92B3
S1130860A636B107D9F725E0A6E6B3E001C01D928C
S1130870AF3FB207E1F70E948F120C94DA1BC0CB92
S11308801F920F920FB60F9211240BB60F922F9353
S11308903F934F935F938F939F93EF93FF93209195
S11308A0C0003091C600287180916D0490E00196DB
S11308B08F77992740916C0450E04817590739F015
S11308C080936D04FC01E059FB4F308301C022E0AA
S11308D020936B04FF91EF919F918F915F914F91C2
S11308E03F912F910F900BBE0F900FBE0F901F9052
S11308F018951F920F920FB60F9211240BB60F92F8
S11309008F939F93EF93FF9390916F0480916E0464
S1130910981779F080916E0490E001968F7799276B
S113092080936E04FC01E051FB4F80818093C600EC
S113093005C0E1ECF0E080818F7D8083FF91EF9131
S11309409F918F910F900BBE0F900FBE0F901F9031
S1130950189510926F0410926E0410926D04109208
S11309606C04992324F422E02093C0009F77909391
S1130970C5008093C40088E98093C10086E0809319
S1130980C200089590916D0480916C049817A1F0B1
S113099080916C0490E001968F77992780936C0482
S11309A0FC01E059FB4F208180916B0490E0982F6B
S11309B08827820F911D089580E091E00895909119
S11309C06D0480916C04981789F0E0916C04F0E058
S11309D03196EF77FF27E059FB4F208180916B041C
S11309E090E0982F8827820F911D089580E091E070
S11309F0089540916F0450E04F5F5F4F4F77552744
S1130A0020916E0430E024173507D1F3FA01E05148
S1130A10FB4F808340936F04E1ECF0E080818062BF
S1130A20808308951F920F920FB60F9211240BB674
S1130A300F922F933F934F935F938F939F93EF93D3
S1130A40FF93209130013091360128718091680321
S1130A5090E001968F7799274091670350E04817FB
S1130A60590739F080936803FC01E559FC4F308342
S1130A7001C022E020936603FF91EF919F918F9133
S1130A805F914F913F912F910F900BBE0F900FBE2E
S1130A900F901F9018951F920F920FB60F9211246A
S1130AA00BB60F928F939F93EF93FF9390916A03EA
S1130AB080916903981779F08091690390E0019619
S1130AC08F77992780936903FC01E551FC4F80815E
S1130AD08093360105C0E1E3F1E080818F7D80835E
S1130AE0FF91EF919F918F910F900BBE0F900FBECE
S1130AF00F901F90189510926A0310926903109238
S1130B00680310926703992324F422E020933001B0
S1130B109F77909335018093340188E98093310164
S1130B2086E080933201089540916A0350E04F5F5C
S1130B305F4F4F7755272091690330E0241735071D
S1130B40D1F3FA01E551FC4F808340936A03E1E35A
S1130B50F1E080818062808308952091F5053091D1
S1130B60F60521153105E9F0809102029091030206
S1130B70281B390BE091F705F091F805309771F0D7
S1130B804EEF5FEF80819181BA01681B790B260FCC
S1130B90371F0280F381E02D3097A1F7822F932F26
S1130BA0089580E090E00895CF93DF93CDB7DEB74A
S1130BB08091040290910502C81BD90B8091020216
S1130BC090910302C81BD90BC8DF9E01281B390B67
S1130BD0C901DF91CF910895E091F705F091F805EF
S1130BE0309771F080E090E0208131818217930783
S1130BF008F4C9010280F381E02D3097A9F7089524
S1130C0080E090E00895E091F705F091F8053097C1
S1130C1049F080E090E00280F381E02D0196309766
S1130C20D1F7089580E090E00895E091F705F09100
S1130C30F805309771F080E090E00280F381E02DB8
S1130C40208131812E5F3F4F820F931F3097A9F788
S1130C50089580E090E008952091F5053091F6051F
S1130C602115310521F42091020230910302809173
S1130C70000290910102009741F48DB79EB7409114
S1130C80040250910502841B950B2817390718F4A8
S1130C90821B930B089580E090E00895CF93DF9337
S1130CA09BDFEC01D9DF8C179D0708F4CE01DF919F
S1130CB0CF910895662331F0E2E0F1E090819062F3
S1130CC0908305C0E2E0F1E090819F7D90838823CA
S1130CD034F4E2E0F1E090819061908305C0E2E0B9
S1130CE0F1E090819F7E908386FF06C0E2E0F1E010
S1130CF090819860908305C0E2E0F1E09081977F55
S1130D00908385FF02C0739A01C0739884FF02C068
S1130D10A59A01C0A59800C0E2E0F1E0908190643A
S1130D20908392E09A95F1F700C090819F7B908325
S1130D3083FF04C090819061908305C0E2E0F1E0FC
S1130D4090819F7E908382FF06C0E2E0F1E0908173
S1130D509860908305C0E2E0F1E09081977F9083F2
S1130D6081FF02C0739A01C0739880FF02C0A59AE4
S1130D7001C0A59800C0E2E0F1E090819064908306
S1130D8092E09A95F1F700C090819F7B90839081C7
S1130D9090619083908198609083739AA59A611171
S1130DA009C0843038F48FE999E10197F1F700C064
S1130DB00000089595ED9A95F1F70000089560E01C
S1130DC079CF0895CF93C82F873650F026E232E0CA
S1130DD044E052E069E372E086E592E00E94B216D4
S1130DE080E88C0FECDFCF91089581E0E8CF08957F
S1130DF061E060CF0895CF93DF93EC012196FC016D
S1130E008081882321F0F4DF89918111FCCFDF9167
S1130E10CF910895CF93DF93EC012196FC01849147
S1130E20882331F0E5DFFE01849121968111FACF08
S1130E30DF91CF910895E1E0F1E0808180648083C7
S1130E4080818062808380818061808380818860EA
S1130E5080836B9A9D9AE2E0F1E080818F7B8083AE
S1130E6080818F7D808380818061808380818860A0
S1130E708083739AA59A8FE59AEE0197F1F700C0E3
S1130E80000080818F7E80838081877F808300C083
S1130E9080818064808392E09A95F1F700C080811C
S1130EA08F7B80838FE090E40197F1F700C000000E
S1130EB080818064808392E09A95F1F700C08081FC
S1130EC08F7B80838FE891E00197F1F700C00000E9
S1130ED080818064808392E09A95F1F700C08081DC
S1130EE08F7B808385ED8A95F1F70000A59800C07B
S1130EF080818064808392E09A95F1F700C08081BC
S1130F008F7B808385ED8A95F1F70000A59800C05A
S1130F1080818064808392E09A95F1F700C080819B
S1130F208F7B808382E08A95F1F700C080818061A5
S1130F30808300C080818064808392E09A95F1F779
S1130F4000C080818F7B808385ED8A95F1F7000056
S1130F5088E035DF4ADF86E032DF8CE030CF089569
S1130F60FF920F931F93CF93DF93062F10E0101679
S1130F70110664F4F82EC0E0D0E08C2F8F0D22DF30
S1130F8080E236DF2196C017D107B9F7DF91CF9100
S1130F901F910F91FF900895EF92FF920F931F936B
S1130FA0CF93DF93CDB7DEB760970FB6F894DEBF6B
S1130FB00FBECDBF8C011F9281E08F931F9288E6F4
S1130FC08F938FE592E09F938F931F9280E18F938D
S1130FD0CE0101967C019F938F930E940D19F80115
S1130FE0E159FF4F0190F081E02DC70119950FB62B
S1130FF0F894DEBF0FBECDBF60960FB6F894DEBF87
S11310000FBECDBFDF91CF911F910F91FF90EF9055
S113101008950F931F93CF93DF93CDB7DEB76097F7
S11310200FB6F894DEBF0FBECDBF8C01FE01319622
S113103080E1DF011D928A95E9F7161617069CF4E4
S11310407F936F9384E692E09F938F931F9280E146
S11310508F93FF93EF930E940D190FB6F894DEBFA0
S11310600FBECDBF19C07723BCF47195619571098A
S11310707F936F938AE692E09F938F931F9280E110
S11310808F93CE0101969F938F930E940D190FB6F3
S1131090F894DEBF0FBECDBFF801E159FF4F0190B8
S11310A0F081E02DCE010196199560960FB6F89463
S11310B0DEBF0FBECDBFDF91CF911F910F91089579
S11310C05F926F927F928F929F92AF92BF92CF92D4
S11310D0DF92EF92FF920F931F93CF93DF931F92B0
S11310E01F92CDB7DEB74C018B013A01FC01E159E7
S11310F0FF4F0190F081E02D80E792E0199519826D
S11311001A82F401E959FF4F808191810817190768
S113111024F5780182E0E80EF11CE80CF91C6894CF
S1131120552455F85401AFE6AA0EB11C6F01F7011E
S113113081917F01882311F0898301C05982D501EF
S1131140ED91FC91CE01019619950F5F1F4FF601A9
S1131150808191810817190754F3C4011DDFB3017D
S1131160C40157DF0F900F90DF91CF911F910F9122
S1131170FF90EF90DF90CF90BF90AF909F908F90B3
S11311807F906F905F900895EF92FF920F931F935B
S1131190CF93DF93FC01E759FF4F20813181121671
S11311A0130694F5EC0136960190F081E02D84E766
S11311B092E019957E0189E6E80EF11CF701808121
S11311C091818E0109591F4FF80140815181481BBB
S11311D0590B4F5F5F4FBC016E5F7F4F6C0F7D1FDC
S11311E001968C0F9D1F0E944418F7018081918104
S11311F0019791838083F80180819181C80FD91F61
S11312001A82019791838083DF91CF911F910F916F
S1131210FF90EF900895CF93DF93DC01FC013296A9
S113122085E6EF0119928A95E9F7EB59FF4F118290
S11312301082329611821082329611821082329676
S113124011821082809106029091070211969C935C
S11312508E93A159BF4F6D937C93FB011995DF9138
S1131260CF910895FC01E559FF4F71836083089580
S1131270EF92FF920F931F93CF93DF93CDB7DEB717
S113128060970FB6F894DEBF0FBECDBF8C01FC0192
S1131290E159FF4F0190F081E02D8CE792E0199520
S11312A0F801E959FF4F4081518120E030E060E0CE
S11312B070E006C02F5F3F4F03C0BD0101C0BD01F8
S11312C0F801E20FF31F8281811105C0241735074D
S11312D08CF3DB0130C02417350764F5DB0111966C
S11312E0660F771F81E090E08C0F9D1F680F791FB8
S11312F0C9010296800F911FFB0191838083A8305E
S1131300B105ECF4C801820F931FFC01828188238C
S1131310A1F2F9013396E00FF11F2F5F3F4F919136
S1131320992321F024173507C4F305C02417350782
S113133034F201C0DB01AF3FFFEFBF0789F478014E
S11313408FE6E80EF11CD701ED91FC918EE792E057
S11313501995D701ED91FC918CE792E0199510C095
S11313601A161B066CF4F801E559FF4F0190F08141
S1131370E02D309729F0BE016F5F7F4FCD011995A5
S1131380F801E159FF4F0190F081E02DD8018D91D2
S11313909C911995F801E959FF4F118210823296F8
S11313A011821082E756F10985E6DF011D928A95C4
S11313B0E9F760960FB6F894DEBF0FBECDBFDF919C
S11313C0CF911F910F91FF90EF900895CF92DF92EC
S11313D0EF92FF920F931F93CF93DF931F921F926D
S11313E0CDB7DEB78C017A836983262F372FF901B5
S11313F03197EF37F10508F091C08827EE58FF4F79
S11314008F4F0C94AA16F801E759FF4F4081518180
S11314101416150624F00FC0C8012ADFD5C07801C0
S113142089E6E80EF11CC801AFDED7014D915C914D
S113143014161506C4F360E070E0C80141DEC4C0B0
S1131440F801E159FF4F0190F081E02D80E792E02F
S11314501995F801E959FF4FD801A759BF4F8D914C
S11314609C9191838083B0C06801B7E6CB0ED11CF8
S11314707801E9E6EE0EF11CD6016D917C91F7013D
S113148080819181681B790BC801C3DDD6018D91E0
S11314909C91F7019183808397C0C8017DDDF80199
S11314A0E759FF4F118210828FC0F801E759FF4FAF
S11314B020813181329780819181281739070CF07E
S11314C083C061E070E0C801A4DDF801E759FF4F73
S11314D08081918101969183808376C0F801E759D8
S11314E0FF4F80819181892B09F46EC06FEF7FEFEC
S11314F0C8018FDDF801E759FF4F80819181019781
S11315009183808361C0C8013FDEF801E759FF4F32
S113151060817181AB01C801D3DD56C02032310531
S113152041F4F801E959FF4F80819181892B29F415
S11315304BC0203231050CF447C0F801E959FF4F84
S113154040815181CA01019685369105ECF57801F7
S1131550F9E6EF0EF11CD7018D919C91481B590BB4
S1131560BC016E5F7F4F600F711F0396800F911F48
S11315700E944418D701ED91FC918981803221F0B9
S1131580E00FF11F828303C0E00FF11F1282F80104
S1131590E759FF4F80819181019691838083D8011F
S11315A0A959BF4F8D919C91119701968D939C934E
S11315B0D801A80FB91F12961C9240815181BA011B
S11315C061507109C8017CDD0F900F90DF91CF91BC
S11315D01F910F91FF90EF90DF90CF900895209A84
S11315E0289AEAE0F1E0808181608083EBE0F1E019
S11315F080818160808381E056C40895CF93C62F93
S113160028988E775FD48C2F5DD4289ACF91089533
S1131610EF92FF920F931F93CF93DF93162F7A01CC
S113162028988E774FD4112369F0E7011150012FC8
S113163010E00F5F1F4F0E0D1F1D899143D4C0177B
S1131640D107D9F7289ADF91CF911F910F91FF907D
S1131650EF90089528988E77806834D480E032D44F
S1131660289A08957F928F929F92AF92BF92CF92C1
S1131670DF92EF92FF920F931F93CF93DF93662332
S113168009F444C0E22E6A018E778068F82E289807
S1131690DFEFD60F17D4DD2389F18601C0E0912C4A
S11316A08E2CAA24A394B12CC1111FC0EE20E9F002
S11316B087E08E1570F0882D792C9501082E02C0D4
S11316C0220F331F0A94E2F7722A8F5F8830A9F73A
S11316D001C0792C8F2DF6D3272D2095F60190810A
S11316E092238721892B808304C08F2DEBD3F801AB
S11316F08083CF5F0F5F1F4FDC13D6CFC6018D0FE2
S1131700911DEC0180E0DED38883289ADF91CF918C
S11317101F910F91FF90EF90DF90CF90BF90AF900B
S11317209F908F907F900895CF93DF93D82FC62FEB
S113173091DF682F6C2B8D2F61DFDF91CF9108959E
S1131740CF93DF93D82FC62F85DFC095682F6C23E6
S11317508D2F54DFDF91CF910895EF92FF920F9375
S11317601F93CF93DF937C01C62F8A0160E082E050
S113177045DF64E08AE042DF60E884E1D5DFA70169
S11317806C2F82E145DF63E082E038DFC8E8D3E113
S11317908AE060DF82FD03C02197D1F70DC060E0CD
S11317A082E02CDF84E456DFF801808382E452DF98
S11317B0F801818381E001C084E0DF91CF911F9122
S11317C00F91FF90EF900895CF93DF936FE082E045
S11317D015DF83ED90E30197F1F700C00000C8E83E
S11317E0D3E102C0219731F082E034DF84FDFACFE7
S11317F081E001C084E0DF91CF91089588E22ADF7F
S1131800982F9370933021F0682F636088E2F6CEAE
S1131810089580910B0180FD0CC0EBE0F1E0808124
S11318208160808383ED90E30197F1F700C00000AD
S113183003C0CADF8130A9F460E884E5DFDE69EA29
S113184086E5DCDE63E088E5D9DE68EE8AE5D6DE8F
S113185060E48AE2D3DE6DE382E2D0DECFDF81E0B2
S1131860089584E008954F925F926F927F928F92D1
S11318709F92AF92BF92CF92DF92EF92FF920F931B
S11318801F93CF93DF931F921F92CDB7DEB7982E8D
S1131890B62E2A01722EC114D10419F0F60160800B
S11318A001C0612CF0E1AF9E600C112460E082E085
S11318B0A5DE6FE788E0A2DE60E884E135DFA201FF
S11318C0672D82E1A5DE662D8AE198DE692D82E02E
S11318D095DE8CE0981203C060E88AE125DF0F2EC4
S11318E0F0ED4F2EF7E05F2EF02D88E0B3DE982F59
S11318F09B2139F480FD6AC0E1E04E1A5108A9F732
S113190067C08CE0A7DEB82E837109F063C00115AF
S11319101105D1F0E114F104B9F084E19BDEF70183
S11319209081981708F458C080832A2DA801682F45
S113193082E198DE88E18EDE8770C114D10409F457
S113194057C0F601808354C0B3FC48C0011511058B
S113195009F446C0E114F10409F444C080E088208D
S113196009F442C0F7019081913021F4843021F1CF
S113197088E041C0923010F1811122C06EEF690FEE
S1131980AE014F5F5F4FC801E8DE8130A1F5F7017A
S1131990808190E0F801E80FF91F329730812981A6
S11319A0321310C0800F911FFC01319790818A81FE
S11319B098130AC081E01FC089E01DC088E01BC0E5
S11319C088E019C088E017C088E015C084E013C01F
S11319D084E011C082E00FC085E00DC083E00BC03D
S11319E081E009C081E007C081E005C083E003C055
S11319F0B3FCFCCFB4CF0F900F90DF91CF911F9128
S1131A000F91FF90EF90DF90CF90BF90AF909F9099
S1131A108F907F906F905F904F9008958F92AF92C8
S1131A20CF92DF92EF92FF920F931F938C2CAE2CE8
S1131A30680179018A01262FAC0160E38CE013DF91
S1131A401F910F91FF90EF90DF90CF90AF908F9008
S1131A5008958F929F92AF92BF92CF92EF920F937D
S1131A601F93CF93DF931F921F92CDB7DEB78A8364
S1131A706115710509F1FA0180818230F8F04A019B
S1131A805B0160E88CE15CDE87E08983C12CE12C9A
S1131A908E010F5F1F4F9401A50161E0CE010296F4
S1131AA0BDDF813071F4F4018081823049F4998181
S1131AB0911107C081E005C085E003C085E001C045
S1131AC082E00F900F90DF91CF911F910F91EF90D3
S1131AD0CF90BF90AF909F908F900895AB01BC01C1
S1131AE086E2B7CF08952F923F924F925F926F9202
S1131AF07F928F929F92AF92BF92CF92DF92EF929A
S1131B00FF920F931F93CF93DF93CDB7DEB7629706
S1131B100FB6F894DEBF0FBECDBF613508F055C1D6
S1131B20698B9D878C8760E88CE10ADE29892053C4
S1131B30288B922F977081E009F480E0988996951C
S1131B4096959695890F8A8B31E03F87AE014F5F5A
S1131B505F4F2A01242E852C5F855230A9F0533023
S1131B6021F1513009F033C183E9898389898823BC
S1131B7041F031E0EC85FD858081853018F430E05A
S1131B8001C030E01E861AC085E98983F989FF23E4
S1131B9041F031E0EC85FD858081883018F430E037
S1131BA001C030E0F3E0FE8709C087E989832A8910
S1131BB021111DC0F88836E03E8723C18E85880F29
S1131BC0880F880FF988F81A332309F40EC188E8BE
S1131BD08B8391E08F2D877009F490E08F2D86958B
S1131BE086958695980F31F183E023E00AC09A899F
S1131BF0F88846E04E8782E030E024E002C082E0CC
S1131C0024E0291708F4922F992389F05E85E52FA3
S1131C10F0E031964C855D85E40FF51F980F219116
S1131C20D201A80FB11D2C938F5F8913F8CF3323F2
S1131C3009F4E7C058E0F50EE4C08FE18F15F0F425
S1131C403A829C818B8189279D8189279E8189275E
S1131C508F83AE01485F5F4F672D822D982D7DDD08
S1131C60813009F0E6C09A8693E09B87FE0137969F
S1131C705F010F2EF9E0DF2EF02D1AC09F2D977013
S1131C809A872F2D26952695269582E0820F392F47
S1131C90F0E18F9F300D11243A83D62C911101C0AD
S1131CA0D92CD80E5201A80EB11C872D821B8B870C
S1131CB0EA846E2D6295607F6E0D8AE19FDCC92CEB
S1131CC08E01065F1F4F9E01255F3F4FA5016D2DBD
S1131CD0822D982DA3DE833099F58CE1BBDC85FD44
S1131CE078C08F7109F480E2F81608F074C0282FC8
S1131CF030E02150310927703078332334F42150F7
S1131D003109286F3F6F2F5F3F4F982F9695969517
S1131D10969531E0390F962D211101C0992D930F1D
S1131D20F201E90FF11D41E050E002C0440F551FDC
S1131D302A95E2F79A019081292B2083F82E7DCFF2
S1131D40813009F076C05FE15F1520F06894FF24CC
S1131D50F5F873CF8B81883809F45FC082E094E092
S1131D605EC0D201A80FB11D2C9121938F5F8913FE
S1131D70F8CF8B85833089F58A85811130C0AE0117
S1131D804D5F5F4F61E0C501E8DC813009F051C06F
S1131D909B81F5018181981324C09C8182819813D1
S1131DA022C0808182FF04C0FF85FF5FFF87D4CEFD
S1131DB0EC85FD8583878F85880FFF858F0F8F5F67
S1131DC0EC85FD85808381E034C087E032C086E005
S1131DD030C083E02EC086E02CC082E02AC082E0BE
S1131DE028C088E026C088E024C091E08F2D877049
S1131DF009F490E08F2D869586958695980F09F0C5
S1131E00FECE662463940F2EF7E07F2EF02D912CE6
S1131E100F2EF0E73F2EF02D10CF83E093E02E85B8
S1131E20E22FF0E031964C855D85E40FF51F980FA5
S1131E3098CF62960FB6F894DEBF0FBECDBFDF9188
S1131E40CF911F910F91FF90EF90DF90CF90BF90B3
S1131E50AF909F908F907F906F905F904F903F9046
S1131E602F900895CF93DF9300D0CDB7DEB782E0F3
S1131E708B83BE016D5F7F4FCE0101962FDE982FBD
S1131E809D7F81E0913009F080E00F900F900F90DA
S1131E90DF91CF91089560E026DE91E0813009F072
S1131EA090E0892F08950CB406FC0BC0219A229A65
S1131EB02398982F937090659CBD82FB882780F9A6
S1131EC08DBD08959CB590619CBD8EBD0DB407FE7B
S1131ED0FDCF8EB508951F920F920FB60F92112465
S1131EE00F900FBE0F901F901895CF92DF92EF9234
S1131EF0FF920F931F93CF93DF9389E594E09F9311
S1131F008F930E94E61882E494E09F938F930E943B
S1131F10E618CEEAD2E00F2EFDEECF2EF2E0DF2E51
S1131F20F02D0F900F900F900F900F2EFEE3EF2ED9
S1131F30F4E0FF2EF02D0CE314E089818F93888167
S1131F408F930E94E618FF92EF920E94E6188B810D
S1131F508F938A818F930E94E6181F930F930E9498
S1131F60E61827968DB79EB708960FB6F8949EBFCD
S1131F700FBE8DBFCC15DD0501F7DF91CF911F9109
S1131F800F91FF90EF90DF90CF9008950F931F93E0
S1131F90CF93DF93CDB7DEB7C058D1090FB6F8940D
S1131FA0DEBF0FBECDBF09EF15E0F801628173817A
S1131FB08AE090E00E949B18F801828193810FD4FB
S1131FC09E012F5F3F4FAE014F575F4FF9018E2F98
S1131FD0821B8193E417F507D1F740E850E0BE0176
S1131FE06F5F7F4F8091FB059091FC0529D4C05809
S1131FF0DF4F0FB6F894DEBF0FBECDBFDF91CF9198
S11320001F910F910895AF92BF92CF92DF92EF92FA
S1132010FF920F931F93CF93DF937C016091FB0595
S11320207091FC058AE090E00E949B1860E180E4D6
S11320300E94B00780E40E94E206C4EED5E000EFFF
S113204015E00F2EFBEBAF2EF3E0BF2EF02D0F2E7D
S1132050F9EFCF2EF5E0DF2EF02DF7018281938189
S1132060FC0101900020E9F73197AF01481B590B9F
S1132070FE0165917491E4D7892BE1F4FE01859109
S113208094919F938F93BF92AF92F60183818F9324
S113209082818F930E947F18FE01859194910E9402
S11320A00A0780E20E94F8060F900F900F900F909D
S11320B00F900F902296C017D10779F6DF91CF9138
S11320C01F910F91FF90EF90DF90CF90BF90AF9052
S11320D00895EF92FF921F93CF93DF93CDB7DEB7AE
S11320E02C970FB6F894DEBF0FBECDBFBBDE88239E
S11320F009F44EC086E992E09F938F930E94D3180F
S1132100CE010196C8DE89811F928F9389E393E003
S11321109F938F930E94E6188C851F928F9388E279
S113212093E09F938F930E94E6188DE193E09F9331
S11321308F930E94E6180FB6F894DEBF0FBECDBF92
S113214089818823E1F010E00F2EF6EAEF2EF2E009
S1132150FF2EF02DE2E0F0E0EC0FFD1FE10FF11D8A
S113216080811F928F93FF92EF920E94D3181F5F7A
S11321700F900F900F900F908981181758F38BE1EF
S113218093E09F938F930E94E6180F900F9008C0DE
S113219082E093E09F938F930E94E6180F900F9034
S11321A02C960FB6F894DEBF0FBECDBFDF91CF9152
S11321B01F91FF90EF900895EF92FF920F931F935A
S11321C0CF93DF93CDB7DEB76B970FB6F894DEBF2E
S11321D00FBECDBF8C0146DE882311F1CE010196DE
S11321E05ADE49814D8750E0BE016E5F7F4FCE01BC
S11321F00E9641D7F801E280F380F70101900020A8
S1132200E9F7CF018E199F09E1D58C01B70161D798
S1132210198F088FCE010D962ED4C8016CD607C035
S113222089EE92E09F938F93D1D70F900F906B9686
S11322300FB6F894DEBF0FBECDBFDF91CF911F91D3
S11322400F91FF90EF900895FC01828193817AC4ED
S11322500895B2C308950F931F93CF93DF931F92F2
S11322601F92CDB7DEB78091F5059091F6050097E2
S113227011F48FEF95E08E010F5F1F4F081B190BB0
S113228087ED92E09F938F93A1D70E94AD059F9312
S11322908F938DEC92E09F938F9398D70E94D405EF
S11322A09F938F9383EC92E09F938F938FD783EACE
S11322B092E09F938F938AD71F930F9386E992E0BE
S11322C09F938F9383D7809171058F93809170052D
S11322D08F9389E892E09F938F9378D780917005CC
S11322E0909171059801281B390BC9019F932F9375
S11322F08CE792E09F938F9369D781E792E09F9355
S11323008F9364D70E9415069F938F938EE592E076
S11323109F938F935BD70E9403069F938F938FE3C2
S113232092E09F938F9352D70FB6F894DEBF0FBEFF
S1132330CDBF0E94EC059F938F9380E292E09F9320
S11323408F9344D70E944E069F938F9381E092E02F
S11323509F938F933BD70E942C069F938F9382EE7B
S113236091E09F938F9332D710937105009370057A
S11323700FB6F894DEBF0FBECDBF0F900F90DF9164
S1132380CF911F910F9108959F938F938BEA92E0C1
S11323909F938F9308D70F900F900F900F900895ED
S11323A00E94DF048115914019F00C94C204089531
S11323B080E00895CF93DF93C82FD92F83E394E06F
S11323C09F938F9387E294E09F938F9381E194E0AE
S11323D09F938F9384EF93E09F938F93DF93CF9397
S11323E08ED68EEE93E09F938F9381EC93E09F9330
S11323F08F93DF93CF9383D68DB79EB740960FB656
S1132400F8949EBF0FBE8DBFDF91CF9108958FEBDF
S113241093E09F938F93DAD68091FB059091FC050E
S1132420C9DF0F900F90089589EB93E09F938F93EA
S1132430CDD687E893E09F938F93C8D60F900F90E3
S11324400F900F90089585E893E09F938F93BED6E5
S11324508CE493E09F938F93B9D60F900F900F90D5
S11324600F9008958F929F92AF92BF92CF92DF9276
S1132470EF92FF920F931F93CF93DF935C016B0155
S1132480FB01008111810F2EFEEA8F2EF2E09F2EB8
S1132490F02DC0E0D0E0F40160817181C801C7D59E
S11324A0892B31F5F1E0AF1AB108FE01EE0FFF1FE1
S11324B0EE0FFF1FEE0FFF1FEC1BFD0BE255FD4F50
S11324C0868190E0A816B90611F0BDDF19C0FE019F
S11324D0EE0FFF1FEE0FFF1FEE0FFF1FEC1BFD0B98
S11324E0E255FD4F0480F581E02DC601199508C021
S11324F0219687E0880E911CC930D10561F694DFDE
S113250080E090E0DF91CF911F910F91FF90EF90C9
S1132510DF90CF90BF90AF909F908F900895CF930E
S1132520DF93CDB7DEB76B970FB6F894DEBF0FBE5F
S1132530CDBF0B9A87E690E00E94A90409EF15E04D
S113254088E192E0F801938382839183808387E614
S113255090E00E947B058AE092E0F80195838483F1
S113256010922001E1E2F1E0108280818C6080838E
S113257085E594EF9093290180932801E3E7F0E047
S11325808081826080830E941B070E94F5067894F4
S113259026D83FD9F801848195810CDF8DEB96E034
S11325A09F938F93F80183818F9382818F93A7D513
S11325B0F801628173818AE090E0BDD586E396E0FC
S11325C09F938F93F80183818F9382818F9397D503
S11325D085E296E00E940A07F801628173818AE02D
S11325E090E0A9D564EC71E1809108029091090210
S11325F00E940B0962E372E1809108029091090242
S11326000E9432090FB6F894DEBF0FBECDBF6894A6
S1132610992493F80F2EF6E1AF2EF6E0BF2EF02D9D
S1132620F894C090F105D090F205E090F305F09095
S1132630F405789480917A0590917B05A0917C05AE
S1132640B0917D05C816D906EA06FB06A1F082B151
S1132650892582B9FF92EF92DF92CF92BF92AF9217
S1132660F80185818F9384818F9349D50FB6F894AF
S1132670DEBF0FBECDBFC0927A05D0927B05E0923B
S11326807C05F0927D058CDE682F70E08091080255
S1132690909109020E94E6094090F1055090F205DC
S11326A06090F3057090F405DDDB882309F43EC0E7
S11326B0CE014096F0DB4889498350E0BE016F5E4D
S11326C07F4FCE010296D7D41D861C86CE0101967B
S11326D0ABD17C01892B71F060E180E40E94B007EA
S11326E080E40E94E206F701838594850E94FB063C
S11326F0119A0CC0119860E180E40E94B00780E454
S11327000E94E20687E994E00E940A074092760557
S1132710509277056092780570927905409272051F
S113272050927305609274057092750580917205DC
S113273090917305A0917405B09175050396A11D40
S1132740B11D84159505A605B70588F4D301C2010A
S11327500396A11DB11D8093720590937305A093F8
S11327607405B093750560E180E40E94B007809120
S1132770760590917705A0917805B0917905029638
S1132780A11DB11D84159505A605B70508F048CF10
S1132790119846CF1F920F920FB60F9211248F9368
S11327A09F93AF93BF938091F1059091F205A0910F
S11327B0F305B091F4050196A11DB11D8093F105B7
S11327C09093F205A093F305B093F405BF91AF91F4
S11327D09F918F910F900FBE0F901F901895EF92BD
S11327E0FF920F931F93CF93DF93F82EE92EC0E24D
S11327F0D0E00DEE12E0DF93CF931F930F93EF928F
S1132800FF926ED40F900F900F900F900F900F9037
S1132810009779F02196CF37D10569F78CE293E0E0
S11328209F938F93EF92FF925BD40F900F900F9032
S11328300F90DF91CF911F910F91FF90EF9008952A
S1132840AF92BF92CF92DF92EF92FF920F931F93BA
S1132850CF93DF93B82EA92E14161506BCF5EB0101
S11328608B01040F151F0F2EF4EFCF2EF2E0DF2E95
S1132870F02D0F2EF1EFEF2EF2E0FF2EF02D299127
S113288030EE320F3F3580F41F922F93FF92EF9278
S1132890AF92BF9225D40F900F900F900F900F908E
S11328A00F90009781F41DC01F922F93DF92CF9257
S11328B0AF92BF9215D40F900F900F900F900F907E
S11328C00F90009771F0C017D107C9F68CE293E01E
S11328D09F938F93AF92BF9203D40F900F900F905A
S11328E00F90DF91CF911F910F91FF90EF90DF90A8
S11328F0CF90BF90AF900895EF92FF920F931F93E4
S1132900CF938C0184E398E09F938F935FD4F80175
S113291080811F928F938DEF92E09F938F9343D486
S113292080E398E09F938F9351D48DB79EB7089618
S11329300FB6F8949EBF0FBE8DBFF8018081882327
S1132940C9F0C0E00F2EF6EAEF2EF2E0FF2EF02DD4
S1132950F801EC0FF11D81811F928F93FF92EF928A
S113296022D4CF5F0F900F900F900F90F8018081C9
S1132970C81770F387E298E09F938F9327D4F801E8
S113298084858F9383858F938BEA92E09F938F93B3
S11329900AD485E298E09F938F9318D48DB79EB79D
S11329A008960FB6F8949EBF0FBE8DBFCF911F91AE
S11329B00F91FF90EF900895EF92FF921F93CF93A2
S11329C0DF93C0917E05D0917F05209741F48FE07D
S11329D098E09F938F93FAD30F900F901FC087EFC7
S11329E097E09F938F93F2D30F900F9011E00F2EE7
S11329F0FDEFEF2EF2E0FF2EF02D1F921F93FF92BA
S1132A00EF92D1D3CE0178DF1F5F0D84DE85C02D18
S1132A100F900F900F900F90209779F7DF91CF913F
S1132A201F91FF90EF9008950F931F93CF93DF931F
S1132A30C0917E05D0917F05209799F08C010F5F9E
S1132A401F4FFE01419150E0B801CF0107D3892BFC
S1132A5059F00D84DE85C02D209799F780E090E031
S1132A6005C080E090E002C08C2F9D2FDF91CF91B4
S1132A701F910F910895CF92DF92EF92FF920F93DF
S1132A801F93CF93DF93EC01CFDF8C01892B51F09F
S1132A9082EB97E09F938F9399D3C8012DDF0F901A
S1132AA00F9047C08FE090E091D18C01EB84FC84BF
S1132AB0F70101900020E9F7CF018E199F0986D113
S1132AC06C010115110511F0892B41F480E697E0A2
S1132AD09F938F937BD30F900F902BC04991F80154
S1132AE04193CF0150E0BE01C6D2B701C601F1D275
S1132AF0F801D486C38616861586E0917E05F0918A
S1132B007F05309731F410937F0500937E0508C04C
S1132B10F9012585368521153105D1F716870587F5
S1132B2084E597E09F938F9351D3C801E5DE0F901E
S1132B300F90DF91CF911F910F91FF90EF90DF9055
S1132B40CF9008957F928F929F92AF92BF92CF922F
S1132B50DF92EF92FF920F931F93CF93DF93CDB742
S1132B60DEB76E970FB6F894DEBF0FBECDBFE09010
S1132B707E05F0907F05BC01CE010196AAD2E11436
S1132B80F10441F48EE397E09F938F931FD30F904A
S1132B900F90A7C0812C912C0F2EF0E0AF2EF3E004
S1132BA0BF2EF02D6E018BE0C80ED11C7C2C0D2D98
S1132BB001C07C011B861D8AF70180818823E1F016
S1132BC010E0F701E10FF11D81811F928F93BF92F5
S1132BD0AF92DF92CF925DD3672D702FCE014596D1
S1132BE064D21F5F0F900F900F900F900F900F9073
S1132BF0F7018081181728F3BE016B5E7F4FCE0169
S1132C0001965ED2892B09F05EC08114910469F5A6
S1132C10F7018585968590937F0580937E0589E2EB
S1132C2097E09F938F93D2D2CE0145969F938F9333
S1132C300BEA12E01F930F93B6D280E297E09F93C2
S1132C408F93C4D2F70184858F9383858F931F93C9
S1132C500F93A9D28EE197E09F938F93B7D20FB6CB
S1132C60F894DEBF0FBECDBF2BC0F70185859685D6
S1132C70F4019687858789E097E09F938F93A6D286
S1132C80CE0145969F938F930BEA12E01F930F9307
S1132C908AD280E097E09F938F9398D2F70184853E
S1132CA08F9383858F931F930F937DD28EEF96E03E
S1132CB09F938F938BD20FB6F894DEBF0FBECDBF18
S1132CC0C70119D10EC0F701858596854701009784
S1132CD009F06FCF8EEC96E09F938F9377D20F908D
S1132CE00F906E960FB6F894DEBF0FBECDBFDF9186
S1132CF0CF911F910F91FF90EF90DF90CF90BF90F5
S1132D00AF909F908F907F900895CF93C82F8A3073
S1132D1019F48DE00E94F9048C2F0E94F90480E0DC
S1132D2090E0CF9108950E94DF0481159140D9F37A
S1132D300E94C20499270895CF93C82F8A3019F4AA
S1132D408DE00E9494058C2F0E94940580E090E011
S1132D50CF910895EE0FFF1F881F8BBF0790F69148
S1132D60E02D1994F091FE05E091FD050097B1F472
S1132D705F934F937F936F933F932F9383E093E0FD
S1132D809F938F93FF93EF93ABD18DB79EB70A9622
S1132D900FB6F8949EBF0FBE8DBF17C05F934F93BD
S1132DA07F936F939F938F933F932F938EE293E040
S1132DB09F938F93FF93EF9393D18DB79EB70C9608
S1132DC00FB6F8949EBF0FBE8DBF2DD1CF93DF9366
S1132DD08230910510F482E090E0E091F705F091E3
S1132DE0F80520E030E0C0E0D0E0309711F14081F8
S1132DF0518148175907C0F04817590761F4828177
S1132E009381209719F09B838A832BC09093F805B4
S1132E108093F70526C02115310519F04217530791
S1132E2018F49A01BE01DF01EF010280F381E02D65
S1132E30DCCF2115310509F1281B390B243031056C
S1132E4090F412968D919C9113976115710521F060
S1132E50FB019383828304C09093F8058093F70564
S1132E60FD01329644C0FD01E20FF31F819391935B
S1132E70225031092D933C933AC02091F5053091AD
S1132E80F605232B41F42091020230910302309382
S1132E90F6052093F50520910002309101022115D9
S1132EA0310541F42DB73EB740910402509105021B
S1132EB0241B350BE091F505F091F605E217F307B5
S1132EC0A0F42E1B3F0B2817390778F0AC014E5F96
S1132ED05F4F2417350748F04E0F5F1F5093F605D8
S1132EE04093F5058193919302C0E0E0F0E0CF01B7
S1132EF0DF91CF9108950F931F93CF93DF930097A2
S1132F0009F48CC0FC013297138212820091F705F8
S1132F101091F8050115110581F420813181820F8A
S1132F20931F2091F5053091F6052817390779F597
S1132F30F093F605E093F50571C0D80140E050E048
S1132F40AE17BF0750F412962D913C911397AD0123
S1132F502115310509F1D901F3CF9D01DA0133833C
S1132F60228360817181860F971F8217930769F40A
S1132F70EC0128813981260F371F2E5F3F4F3183A3
S1132F8020838A819B8193838283452B29F4F09348
S1132F90F805E093F70542C01396FC93EE9312975D
S1132FA0ED01499159919E01240F351FE217F30752
S1132FB071F480819181840F951F029611969C93E0
S1132FC08E938281938113969C938E931297E0E063
S1132FD0F0E0D80112968D919C911397009719F007
S1132FE0F8018C01F6CF8D919C9198012E5F3F4F93
S1132FF0820F931F2091F5053091F60528173907A4
S113300069F4309729F41092F8051092F70502C07C
S1133010138212821093F6050093F505DF91CF9188
S11330201F910F91089581E090E0F894C3C3FB01D0
S1133030DC018D91059080190110D9F3990B089545
S1133040FB01DC014150504030F08D910590801916
S113305019F40020B9F7881B990B0895FB01DC01D2
S113306004C08D910190801921F441505040C8F75B
S1133070881B990B0895FB01DC0102C001900D929D
S113308041505040D8F708956817790768F4FB0158
S1133090DC01E40FF51FA40FB51F02C002900E92CD
S11330A041505040D8F70895E6CFFB01DC010D9064
S11330B00020E9F7119701900D920020E1F708959F
S11330C0FB01DC018D91019080190110D9F3990B5A
S11330D00895FB01DC0101900D920020E1F70895B1
S11330E0CF93DF93CDB7DEB7AE01465F5F4F688500
S11330F079858E819F81FCD0DF91CF9108950F93C4
S11331001F93CF93DF93CDB7DEB708851985F801F8
S1133110838188608383AE01445F5F4F6A857B85CA
S1133120C801E6D0F8012381277F2383DF91CF9163
S11331301F910F9108950F931F93CF93DF93FB017A
S1133140238121FD03C08FEF9FEF28C022FF16C00B
S113315046815781248135814217530744F4A08165
S1133160B1819D012F5F3F4F318320838C93268152
S113317037812F5F3F4F3783268310C0EB01092F20
S1133180182F0084F185E02D1995892BE1F68E81A5
S11331909F8101969F838E83812F902FDF91CF9102
S11331A01F910F910895CF93DF93CDB7DEB7AE0192
S11331B04A5F5F4FFA0161917191AF018091FB0504
S11331C09091FC0595D0DF91CF9108950F931F93B3
S11331D0CF93DF93CDB7DEB7AE01485F5F4FDA011F
S11331E06D917D91AD0109EF15E0F8018281938124
S11331F0DC0113962C911397286013962C9378D0A6
S1133200D8011296ED91FC9113972381277F238394
S1133210DF91CF911F910F9108950F931F93CF9337
S1133220DF93CDB7DEB72E970FB6F894DEBF0FBE8F
S1133230CDBF0E891F89888D998D26E02C831A8332
S1133240098397FF02C080E090E801979E838D83F5
S1133250AE01445E5F4F6A8D7B8DCE01019648D0EE
S11332604D815E8157FD0AC02F813885421753076F
S11332700CF49A01F801E20FF31F10822E960FB698
S1133280F894DEBF0FBECDBFDF91CF911F910F9198
S113329008950F931F93CF93DF93CDB7DEB72E9787
S11332A00FB6F894DEBF0FBECDBF0E891F8986E02E
S11332B08C831A8309838FEF9FE79E838D83AE01EE
S11332C0465E5F4F688D798DCE01019611D02F81B6
S11332D03885F801E20FF31F10822E960FB6F8948A
S11332E0DEBF0FBECDBFDF91CF911F910F91089527
S11332F02F923F924F925F926F927F928F929F9202
S1133300AF92BF92CF92DF92EF92FF920F931F93EF
S1133310CF93DF93CDB7DEB72C970FB6F894DEBF0B
S11333200FBECDBF7C016B018A01FC01178216829E
S1133330838181FFB0C1CE0101964C01F7019381D5
S1133340F60193FD859193FF81916F01882309F420
S11333509EC1853239F493FD859193FF81916F016C
S1133360853221F4B70190E0E6DEE8CF512C312C10
S113337020E02032A0F48B3269F030F4803259F02E
S1133380833269F420612CC08D3239F0803339F4F2
S1133390216026C02260246023C0286021C027FD4C
S11333A027C030ED380F3A3078F426FF06C0FAE033
S11333B05F9E300D1124532E13C08AE0389E300DC9
S11333C01124332E20620CC08E3221F426FD5FC1FD
S11333D0206406C08C3611F4206802C0883641F49B
S11333E0F60193FD859193FF81916F018111C1CF06
S11333F0982F9F7D9554933028F40C5F1F4FFFE363
S1133400F9830DC0833631F0833771F0833509F0C9
S113341057C021C0F801808189830E5F1F4F442467
S11334204394512C540114C03801F2E06F0E711C06
S1133430F801A080B18026FF03C0652D70E002C0B2
S11334406FEF7FEFC5012C874CD12C0183012C85B4
S11334502F77222E16C03801F2E06F0E711CF8018E
S1133460A080B18026FF03C0652D70E002C06FEF1D
S11334707FEFC5012C872AD12C012C852068222EB0
S1133480830123FC19C0832D90E048165906A0F44B
S1133490B70180E290E04FDE3A94F5CFF50127FCC6
S11334A0859127FE81915F01B70190E044DE3110E0
S11334B03A94F1E04F1A51084114510479F7DEC0EF
S11334C0843611F0893631F5F80127FF07C0608191
S11334D07181828193810C5F1F4F08C0608171816B
S11334E0072E000C880B990B0E5F1F4F2F76722E40
S11334F097FF09C090958095709561957F4F8F4F88
S11335009F4F2068722E2AE030E0A401F5D0A82E47
S1133510A81843C0853729F42F7EB22E2AE030E064
S113352025C0F22FF97FBF2E8F36C1F018F48835ED
S113353079F0ADC0803719F0883721F0A8C02F2F5B
S11335402061B22EB4FE0DC08B2D8460B82E09C04C
S113355024FF0AC09F2F9660B92E06C028E030E0F1
S113356005C020E130E002C020E132E0F801B7FEFE
S113357007C060817181828193810C5F1F4F06C0F7
S11335806081718180E090E00E5F1F4FA401B4D090
S1133590A82EA818FB2DFF777F2E76FE0BC0372DA3
S11335A03E7FA51450F474FE0AC072FC08C0372D87
S11335B03E7E05C0BA2C372D03C0BA2C01C0B52CF1
S11335C034FF0DC0FE01EA0DF11D8081803311F43A
S11335D0397E09C032FF06C0B394B39404C0832F6C
S11335E0867809F0B39433FD12C030FF06C05A2C1C
S11335F0B31418F4530C5B18B32CB31460F4B70170
S113360080E290E03C8797DDB3943C85F6CFB31419
S113361010F43B1801C0312C34FF11C0B70180E312
S113362090E03C8788DD3C8532FF16C031FD03C045
S113363088E790E002C088E590E0B7010CC0832FD2
S1133640867851F031FF02C08BE201C080E237FD81
S11336508DE2B70190E06FDDA51430F4B70180E38B
S113366090E069DD5A94F8CFAA94F401EA0DF11DB3
S11336708081B70190E05FDDA110F6CF332009F41B
S11336805DCEB70180E290E056DD3A94F7CFF701C2
S11336908681978102C08FEF9FEF2C960FB6F89426
S11336A0DEBF0FBECDBFDF91CF911F910F91FF9071
S11336B0EF90DF90CF90BF90AF909F908F907F90CE
S11336C06F905F904F903F902F900895FC0105906C
S11336D0615070400110D8F7809590958E0F9F1F10
S11336E00895FC016150704001900110D8F7809555
S11336F090958E0F9F1F0895FA01AA27283051F143
S1133700203181F1E8946F936E7F6E5F7F4F8F4F0E
S11337109F4FAF4FB1E03ED0B4E03CD0670F781F6D
S1133720891F9A1FA11D680F791F8A1F911DA11D52
S11337306A0F711D811D911DA11D20D009F468948B
S11337403F912AE0269F11243019305D3193DEF633
S1133750CF010895462F4770405D4193B3E00FD0E9
S1133760C9F7F6CF462F4F70405D4A3318F0495DD4
S113377031FD4052419302D0A9F7EACFB4E0A695B7
S11337809795879577956795BA95C9F700976105D9
S1133790710508959B01AC010A2E0694579547952F
S11337A037952795BA95C9F7620F731F841F951F24
S10B37B0A01D0895F894FFCF59
S11337B80000FF05200094028005000000020000BC
S11337C800009C1600000000000000030000000038
S11337D8851693160000706F73203C204C43445F99
S11337E8434F4C535F4D4158002E2E2F6C69622F66
S11337F8686434343738305F3131312F6864343495
S11338083738302E63006C63645F676F746F001B16
S11338185B2564441B5B256443001B5B25644400EF
S11338281B5B4B001B5B44201B5B44000D00455293
S1133838524F523A746F6F206D616E7920746F6BBA
S1133848656E73003E000A436172642073656C659B
S11338586374656421002530325800257300DF0540
S1133868D605750F00CE05BD05071200B705A405DA
S1133878C60F009E0562050310015D053A0569102F
S1133888003605FF04DC1001C404A604291100FC59
S113389804CA0424110193045B042B11002563203A
S11338A80025630022307825303278220025640010
S11338B8255800417373657274696F6E2066616977
S11338C86C65643A20282573292C2066696C652068
S11338D825732C206C696E652025642E0A004173BB
S11338E873657274696F6E206661696C65643A20E9
S11338F8282573292C2066756E6374696F6E2025DC
S1133908732C2066696C652025732C206C696E65A0
S10939182025642E0A00C4
S9030000FC
