:100000000C94E0030C9401040C9401040C9401047E
:100010000C9401040C9401040C9401040C9401044C
:100020000C9401040C9401040C9401040C9401043C
:100030000C9401040C9401040C9401040C9401042C
:100040000C9401040C9401040C9401040C9401041C
:100050000C9401040C9401040C9401040C9401040C
:100060000C940D0B0C9453100C9423100C9401045D
:100070000C9401040C9401040C9401040C940104EC
:100080000C9401040C9401040C9401040C940104DC
:100090000C9401040C9401040C9401040C940104CC
:1000A0000C9401040C9401040C9401040C940104BC
:1000B0000C9401040C9401040C9401040C94B20AF5
:1000C0000C9401040C9401040C9401040C9401049C
:1000D0000C9401040C9401040C94B40F0C94840F40
:1000E0000C9401040C94D8080C94C2060C940304DC
:1000F0000C941B060C9464040C9499050C94640AEB
:100100000C942B040C9434080C9484060C94730601
:100110000C9429070C94A6050C940E044A756E6580
:10012000004D617900417072696C004D61726368C5
:10013000004665627275617279004A616E7561721E
:1001400079005072696E74206D656D6F72792075DB
:100150007361676520616E64206368616E67652006
:10016000636F6D706172656420746F207072657664
:10017000696F75732063616C6C006D656D0052650D
:100180006D6F7665204D696661726520636172648A
:100190002066726F6D206C6973742055736167659A
:1001A0003A20726D203C63617264207569643E0080
:1001B000726D00416464204D696361726520636102
:1001C000726420746F206C6973742E20557361679C
:1001D000653A20616464203C6361726420756964DF
:1001E0003E203C6361726420686F6C646572206EAF
:1001F000616D653E00616464005072696E742073C5
:10020000746F7265642061636365737320636172E8
:1002100064206C697374007072696E740052656159
:1002200064204D6966617265206361726420616E4D
:1002300064207072696E74204361726420494400C6
:10024000726561640046696E64206D6174636869FB
:100250006E67206D6F6E74682066726F6D206C6FB4
:100260006F6B7570206C6973742E205573616765B0
:100270003A206D6F6E7468203C737472696E673ECD
:10028000006D6F6E7468007072696E742041534324
:100290004949207461626C65730061736369690028
:1002A0005072696E742046572076657273696F6E5E
:1002B0000076657273696F6E004765742068656CBF
:1002C000700068656C70000A00203A2000496D706B
:1002D0006C656D656E74656420636F6D6D616E64D1
:1002E000733A0A006176722D6C69626320766572DA
:1002F00073696F6E3A20322E302E30206176722D67
:100300006763632076657273696F6E3A20342E39A5
:100310002E330A0056657273696F6E3A206C616203
:1003200030367265662D302D6738313262383820AC
:100330006275696C74206F6E3A204A616E202032BB
:1003400020323031372031353A32363A33370A00ED
:1003500020616E6420000A003A0131012B01250161
:1003600021011C010A0043617264205549443A206E
:1003700000436172642073656C6563746564210A6F
:1003800000556E61626C6520746F2073656C6563E7
:100390007420636172642E0A000A00205549445B90
:1003A00025645D3A20004163636573732063617265
:1003B000647320696E206C6973743A0A0043617239
:1003C00064206C69737420697320656D7074790A98
:1003D00000416464656420636172642E2055494461
:1003E0003A20004661696C65642E2050726F62612C
:1003F000626C79206F7574206F66206D656D6F7209
:10040000790A004661696C65642E2050726F6261E2
:10041000626C79206F7574206F66206D656D6F72E8
:10042000790A00416464656420636172642E20551A
:1004300049443A20004661696C65642E2050726F11
:100440006261626C79206F7574206F66206D656DD6
:100450006F72790A004661696C65642E2050726F74
:100460006261626C79206F7574206F66206D656DB6
:100470006F72790A0043616E206E6F74206164644C
:1004800020636172642E2055494420616C7265615D
:10049000647920696E206C6973740A0043616E2070
:1004A0006E6F742061646420636172642E2055490C
:1004B0004420616C726561647920696E206C697397
:1004C000740A0043617264205549442068616C6C71
:1004D000206265206C657373206F72206571756191
:1004E0006C20746F2031300A0052656D6F76696E32
:1004F000672063617264205549443A200043617269
:1005000064205549442068616C6C206265206C65EC
:100510007373206F7220657175616C20746F203168
:10052000300A004E6F20636172647320696E206C24
:100530006973740A004C61726765737420616C6C36
:100540006F6361626C6520626C6F636B3A20202080
:1005500025640A004C617267657374206672656574
:100560006C69737420626C6F636B3A2020202025C5
:10057000640A004C61726765737420626C6F636B10
:1005800020696E20667265656C6973743A20256413
:100590000A00426C6F636B7320696E20667265653A
:1005A0006C6973743A202020202020202025640AC2
:1005B00000467265656C6973742073697A653A20C8
:1005C00020202020202020202020202025640A0018
:1005D0000A467265656C6973740A004368616E67E8
:1005E0006520202025640A0050726576696F757356
:1005F0002025640A0043757272656E74202025649C
:100600000A000A5370616365206265747765656EE0
:1006100020737461636B20616E6420686561703A59
:100620000A00467265653A2025640A0055736564C0
:100630003A2025640A00486561702073746174690A
:1006400073746963730A00546F20666577206F7254
:1006500020746F6F206D616E7920617267756D65B2
:100660006E747320666F72207468697320636F6D97
:100670006D616E640A557365203C68656C703E0A56
:1006800000436F6D6D616E64206E6F7420696D70D4
:100690006C656D656E7465642E0A20557365203C2B
:1006A00068656C703E20746F206765742068656CA7
:1006B000702E0A000A000A000A006176722D6C6929
:1006C00062632076657273696F6E3A20322E302E27
:1006D00030206176722D6763632076657273696F6F
:1006E0006E3A20342E392E330A0056657273696FC4
:1006F0006E3A206C616230367265662D302D673837
:100700003132623838206275696C74206F6E3A201D
:100710004A616E20203220323031372031353A3272
:10072000363A33370A00557365206261636B737024
:1007300061636520746F2064656C65746520656E07
:1007400074727920616E6420656E74657220746FB6
:1007500020636F6E6669726D2E0A4172726F772028
:100760006B6579277320616E642064656C20646F0B
:10077000206E6F7420776F726B2063757272656E76
:10078000746C792E0A0053747564656E7420546518
:1007900073740A0053747564656E742054657374C1
:1007A00000557074696D653A20256C7520730A00D8
:1007B0004163636573732064656E6965642100003D
:1007C00011241FBECFEFD1E2DEBFCDBF00E00CBFD2
:1007D00013E0A0E0B2E0ECECF3E300E00BBF02C0FA
:1007E00007900D92A430B107D9F715E0A4E0B3E06B
:1007F00001C01D92AD39B107E1F70E9402110C94BE
:10080000E4190C9400008A3021F48DE00E946B0FF3
:100810008AE00E946B0F80E090E0089590910704B9
:10082000809106049817D1F3E0910604F0E0319628
:10083000EF77FF27EA57FC4F20818091850390E0F6
:10084000982F8827820F911D8115914039F30E94BE
:100850000610992708958A3021F48DE00E94ED0F4B
:100860008AE00E94ED0F80E090E00895CF92DF9241
:10087000EF92FF920F931F93CF93DF93D82EC92E41
:10088000EB018B01040F151F81E6E82E82E0F82EA4
:10089000C017D10781F089911F928F93FF92EF9239
:1008A000CF92DF920E9497160F900F900F900F90AB
:1008B0000F900F90EDCFDF91CF911F910F91FF908F
:1008C000EF90DF90CF9008958F929F92AF92BF925A
:1008D000CF92DF92EF92FF920F931F93CF93DF930C
:1008E000CDB7DEB7C058D1090FB6F894DEBF0FBE42
:1008F000CDBFF0909505E090960500E210E026E669
:10090000C22E22E0D22E1F930F93DF92CF92EF924E
:10091000FF920E9497160F900F900F900F900F90DC
:100920000F90892B89F00F5F1F4F0F37110559F773
:100930008BE992E09F938F93EF92FF920E9497161C
:100940000F900F900F900F908E010F5F1F4FF801C7
:1009500080E081938F5F8038E1F7F0909505E0901B
:1009600096054E0181E8880E911C8DE6C82E82E026
:10097000D82E9AE6A92E92E0B92EF80181918F0126
:1009800090EE980F9F3500F51F928F93BF92AF9214
:10099000EF92FF920E9497160F900F900F900F907A
:1009A0000F900F90892BA9F00815190531F78BE9E5
:1009B00092E09F938F93EF92FF920E9497160F9071
:1009C0000F900F900F9005C01F928F93DF92CF92E0
:1009D000DFCFC058DF4F0FB6F894DEBF0FBECDBFDC
:1009E000DF91CF911F910F91FF90EF90DF90CF900B
:1009F000BF90AF909F908F9008957F928F929F921B
:100A0000AF92BF92CF92DF92EF92FF920F931F931C
:100A1000CF93DF93CDB7DEB7DA950FB6F894DEBF8C
:100A20000FBECDBF6C015B017A019E012F5F3F4F6E
:100A3000490180E091E0F9019C0111922150304080
:100A4000E1F781E08AAB82E08BAB83E08CAB84E0A2
:100A50008DAB85E08EAB86E08FAB87E088AF88E01A
:100A600089AF89E08AAF6AE023966FAF23975BE096
:100A700024965FAF24973CE025963FAF25972DE065
:100A800026962FAF26979EE027969FAF27978FE059
:100A900028968FAF2897A3966FAFA397A4965FAFC2
:100AA000A497A5963FAFA597A6962FAFA697A79612
:100AB0009FAFA797A8968FAFA897EE0CFF1C712C3D
:100AC000072D10E00E151F0500F5C6010E948E16B9
:100AD00008171907D0F4872D8695D501A80FB11DE9
:100AE000F601E00FF11F81819401280F311D8081F3
:100AF000F401E80FF11D90819295907FF9018081BA
:100B0000982B9C9373947394DBCFD3950FB6F89482
:100B1000DEBF0FBECDBFDF91CF911F910F91FF9030
:100B2000EF90DF90CF90BF90AF909F908F907F908D
:100B300008959F938F9388E892E09F938F930E94EC
:100B4000C4160F900F900F900F9008958F929F9260
:100B5000AF92BF92CF92DF92EF92FF920F931F93CB
:100B6000CF93DF93C0917B03D0917C03209749F40E
:100B70008DEB93E09F938F930E94D8160F900F9068
:100B80004DC086EA93E09F938F930E94D8160F90F2
:100B90000F9000E010E086E7882E82E0982E9BE917
:100BA000A92E93E0B92E2AE7C22E22E0D22E39E9EF
:100BB000E32E33E0F32E0F5F1F4F1F930F939F928F
:100BC0008F920E94C41688811F928F93BF92AF921A
:100BD0000E94D816488150E0BE016B5F7F4F809124
:100BE0009505909196050E9436048A818F9389819C
:100BF0008F93DF92CF920E94C416FF92EF920E94D1
:100C0000D8160B80DC81C02D8DB79EB70E960FB61F
:100C1000F8949EBF0FBE8DBF209769F6DF91CF91EC
:100C20001F910F91FF90EF90DF90CF90BF90AF900A
:100C30009F908F900895CF93DF93CDB7DEB72C9719
:100C40000FB6F894DEBF0FBECDBF0E94FC0B882309
:100C5000C9F181E793E09F938F930E94D816CE014C
:100C600001960E94790C89811F928F938BE892E004
:100C70009F938F930E94C4168C851F928F938DE94A
:100C800092E09F938F930E94C41686E693E09F9311
:100C90008F930E94D816498150E0BE016E5F7F4F4E
:100CA00080919505909196050E94360484E693E024
:100CB0009F938F930E94D8160FB6F894DEBF0FBE95
:100CC000CDBF08C081E893E09F938F930E94D81610
:100CD0000F900F902C960FB6F894DEBF0FBECDBFCD
:100CE000DF91CF91089584E193E09F938F930E94C9
:100CF000D81684EE92E09F938F930E94D8160F909F
:100D00000F900F900F900895EF92FF920F931F9303
:100D1000CF93DF938DEC92E09F938F930E94D81630
:100D2000C2E2D2E00F900F9089ECE82E82E0F82E1C
:100D300007EC12E089818F9388818F930E94D816E7
:100D4000FF92EF920E94D8168B818F938A818F93A6
:100D50000E94D8161F930F930E94D81627968DB71E
:100D60009EB708960FB6F8949EBF0FBE8DBF92E057
:100D7000C136D907F9F6DF91CF911F910F91FF90FE
:100D8000EF900895AF92BF92CF92DF92EF92FF92D1
:100D90000F931F93CF93DF937C016B0188EB96E059
:100DA0009F938F930E94D816F601A080B18002E233
:100DB00012E00F900F90C0E0D0E0F80160817181E7
:100DC000C5010E944116892B09F5F1E0EF1AF108DF
:100DD00087E08C9FF0018D9FF00D1124EE5DFD4F9B
:100DE000868190E0E816F90619F087E496E007C0DE
:100DF0000480F581E02DC601199586EB96E09F935E
:100E00008F930E94D8160F900F9016C02196095FFD
:100E10001F4FC930D10589F681E896E09F938F93E3
:100E20000E94D81684EB96E09F938F930E94D81669
:100E30000F900F900F900F9080E090E0DF91CF9196
:100E40001F910F91FF90EF90DF90CF90BF90AF90E8
:100E50000895EF92FF920F931F93CF93DF931F920A
:100E60001F92CDB7DEB780918F05909190050097C6
:100E700011F48DE995E09E012F5F3F4F7901E81A4B
:100E8000F90A86E396E09F938F930E94D8160E94FA
:100E9000AE109F938F938CE296E09F938F930E9466
:100EA000D8168DB79EB72091200230912102821B67
:100EB000930B20911E0230911F028C01021B130B19
:100EC0000E94AE109801281B390BC9019F932F93E4
:100ED00082E296E09F938F930E94D81682E096E07C
:100EE0009F938F930E94D816FF92EF9285EF95E023
:100EF0009F938F930E94D816809176038F93809151
:100F000075038F9388EE95E09F938F930E94D81678
:100F100080917503909176039701281B390BC901C5
:100F20009F932F938BED95E09F938F930E94D816FC
:100F300080ED95E09F938F930E94D816E0919105E4
:100F4000F09192050FB6F894DEBF0FBECDBF80E0E2
:100F500090E0309751F00280F381E02D20813181C3
:100F60002E5F3F4F820F931FF4CF9F938F9381EBA0
:100F700095E09F938F930E94D816E0919105F09190
:100F800092050F900F900F900F9080E090E03097B7
:100F900029F00280F381E02D0196F9CF9F938F9382
:100FA00082E995E09F938F930E94D816E091910576
:100FB000F09192050F900F900F900F9080E090E0CD
:100FC000309751F0208131818217930708F4C901CD
:100FD0000280F381E02DF4CF9F938F9383E795E018
:100FE0009F938F930E94D816E0919105F0919205FE
:100FF0000F900F900F900F9000E010E0309751F09D
:10100000808191810817190708F48C010280F3810F
:10101000E02DF4CF0E948C108017910708F4C801CE
:101020009F938F9384E595E09F938F930E94D816AA
:101030000E948C109F938F9385E395E09F938F93ED
:101040000E94D816F0927603E09275030FB6F894DA
:10105000DEBF0FBECDBF0F900F90DF91CF911F91DC
:101060000F91FF90EF9008958F929F92AF92BF9251
:10107000CF92DF92EF92FF920F931F93CF93DF9364
:10108000CDB7DEB72A970FB6F894DEBF0FBECDBF3F
:1010900000917B0310917C039E012F5F3F4F59010C
:1010A0002AE0F50111922A95E9F7FC01E280F3802C
:1010B000C7010E948E166C01D694C79401151105C4
:1010C00019F483E295E006C0FBE0CF16D10448F0A6
:1010D0008DEF94E09F938F930E94D8160F900F90FE
:1010E00054C0A601440F551FB501C7010E94FD045D
:1010F000E12CF12C480125E0820E911CA601B401DF
:10110000C5010E945816892BC1F589EE94E09F9382
:101110008F930E94D816F801408150E0B40180916D
:101120009505909196050E943604F80182818F936F
:1011300081818F938EEA92E09F938F930E94C416D1
:101140000F900F900F900F900F900F90F8018381E8
:101150009481E114F10429F490937C0380937B0340
:1011600003C0F70194838383F801818192810E94F7
:10117000A915C8010E94A91508C0F80183819481AE
:101180007801009711F08C01B5CF2A960FB6F8942C
:10119000DEBF0FBECDBFDF91CF911F910F91FF90AA
:1011A000EF90DF90CF90BF90AF909F908F90089579
:1011B0008F929F92AF92BF92CF92DF92EF92FF9267
:1011C0000F931F93CF93DF93CDB7DEB72A970FB658
:1011D000F894DEBF0FBECDBF7C0100917B03109160
:1011E0007C03DC0112968D909C901397C4010E94A1
:1011F0008E166C01D694C794FE0131965F018AE089
:10120000DF011D928A95E9F7BBE0CB16D10418F0F7
:1012100083EC94E0BFC0A601440F551FBF01C40179
:101220000E94FD040115110509F08CC08FE090E0CB
:101230000E9414158C0190937C0380937B03892B6F
:1012400019F483E094E0A6C0F701848195810E949F
:101250008E1601960E941415D80112969C938E93B7
:101260001197E0917B03F0917C038181928100973B
:1012700069F483EE93E09F938F930E94D816809138
:101280007B0390917C030E94A915AFC0F701648194
:1012900075810E94871680917B0390917C034AE0C0
:1012A00050E060E070E005960E948016D70112962B
:1012B000CD90DC901397C6010E948E1600917B039F
:1012C00010917C03B8016B5F7F4FAC01C6010E9497
:1012D000FD04F701828193810E948E169695879571
:1012E000D8018C9314961C921E92139781ED93E073
:1012F0009F938F930E94D816F701828193810E9459
:101300008E16AC015695479560917B0370917C03D6
:101310006B5F7F4F80919505909196050E943604F2
:10132000E0917B03F0917C0380811F928F9380EC8E
:1013300092E09F938F930E94C416E0917B03F091FB
:101340007C03A0C0D80113968D909C901497B8018F
:101350006B5F7F4FA601C5018114910441F00E948B
:1013600058168401892B71F78CE994E013C00E9410
:101370005816892B19F485E794E00CC08FE090E0B3
:101380000E9414154C01F80194838383892B39F44E
:1013900085E594E09F938F930E94D81626C0D701CD
:1013A00014968D919C9115970E948E1601960E941D
:1013B0001415F40192838183D8011396ED91FC9169
:1013C000149781819281009799F485E394E09F932B
:1013D0008F930E94D816F801838194810E94A915E9
:1013E000D80114961C921E9213970F900F9059C01B
:1013F000F701648175810E948716D80113968D913B
:101400009C9114974AE050E060E070E005960E94DD
:101410008016F80183819481A601B50105960E948A
:101420006516D8011396ED91FC911497C082148231
:10143000138283E294E09F938F930E94D816D80181
:101440001396ED91FC911497408150E0BF016B5FC2
:101450007F4F80919505909196050E943604D801A2
:101460001396ED91FC91149780811F928F9380ECDD
:1014700092E09F938F930E94C416D8011396ED912A
:10148000FC91149782818F9381818F938FEA92E0F0
:101490009F938F930E94C4160FB6F894DEBF0FBEC1
:1014A000CDBF2A960FB6F894DEBF0FBECDBFDF9139
:1014B000CF911F910F91FF90EF90DF90CF90BF9051
:1014C000AF909F908F900895AF92BF92DF92EF926E
:1014D000FF920F931F93CF93DF937C010E945D0FC8
:1014E00080EC0E945A0FC8E5D3E0D12C06E513E04A
:1014F000F701A280B380C5010E948E16FE0165919E
:101500007491AC01C5010E944A16892BE1F4FE01D9
:10151000859194919F938F930E94D8161F930F9358
:101520000E94D8160F900F900F900F90DD2021F0A1
:1015300080E593E00E944A0FFE01859194910E94FC
:101540004A0FDD24D3942296F3E0C436DF0781F6F8
:10155000DF91CF911F910F91FF90EF90DF90BF909F
:10156000AF9008951F920F920FB60F9211240BB6F1
:101570000F922F933F934F935F936F937F938F932C
:101580009F93AF93BF93EF93FF930E94E610FF9159
:10159000EF91BF91AF919F918F917F916F915F91EB
:1015A0004F913F912F910F900BBE0F900FBE0F9058
:1015B0001F9018959CB590619CBD8EBD0DB407FE23
:1015C000FDCF8EB50895EF92FF920F931F93CF93A7
:1015D000DF931F921F92CDB7DEB7182F289882E1B4
:1015E00069837A830E94DA0A6981062FE62E7A815E
:1015F000F72E8E2D801B811730F4F70181917F012A
:101600000E94DA0AF6CF289A0F900F90DF91CF91BF
:101610001F910F91FF90EF9008951F920F920FB6B8
:101620000F9211240F900FBE0F901F9018952898BD
:101630008E7780680E94DA0A80E00E94DA0A289A8F
:101640000895CF93DF931F92CDB7DEB728988E779A
:1016500069830E94DA0A6981862F0E94DA0A289A31
:101660000F90DF91CF910895CF93C82F0E94170B51
:10167000682F60688C2FCF910C94210B7F928F92F2
:101680009F92AF92BF92CF92DF92EF92FF920F9311
:101690001F93CF93DF934C01F62EEA0159016801A5
:1016A0000115110519F0F801908101C090E0192F82
:1016B000F0E1EF9E100D112460E082E00E94210B0A
:1016C0006FE788E00E94210B84E10E94340BB40193
:1016D0008F2D0E94E30A612F8AE10E94210B6CE0AA
:1016E00082E00E94210B8AE10E94340B00ED17E09A
:1016F00088E00E94170B982F907331F480FD67C02B
:1017000001501109A9F763C08CE00E94170BF82E55
:10171000837109F05EC0209709F455C0A114B1048B
:1017200009F451C084E10E94170BF50190819817CC
:1017300008F451C080838823E9F128980FEF080F3F
:1017400082E90E94DA0A7C2E8C2E9D2EAA24A39474
:10175000B12C882D8719801730F581111BC0EE2020
:10176000C9F09E2D10E0983048F49501092E01C073
:10177000220F0A94EAF7122B9F5FF5CF82E90E94AD
:10178000DA0A212F2095988192238123192F182B73
:10179000188305C082E90E94DA0AF4018083FFEF12
:1017A0008F1A9F0AD6CFC00FD11D80E00E94DA0A9F
:1017B0008883289A88E10E94170B8770C114D1048E
:1017C00011F0F6018083F3FC08C081E007C084E0DB
:1017D00005C082E003C085E001C083E0DF91CF91C6
:1017E0001F910F91FF90EF90DF90CF90BF90AF903F
:1017F0009F908F907F900895EF920F931F93CF93B8
:10180000DF9300D01F921F92CDB7DEB782E08D83A9
:1018100086E28B838CE10E94170B682F6F778CE137
:101820000E94210B87E08C83E12C8E010C5F1F4FFF
:101830009E012B5F3F4FAE014F5F5F4F61E0CE01D6
:1018400003960E943E0B813031F49D81923011F459
:101850009C81911182E0982F9D7F81E0913009F069
:1018600080E00F900F900F900F900F90DF91CF912D
:101870001F910F91EF900895EF92FF920F931F9396
:10188000CF93DF937C01C62F8A0160E082E00E9443
:10189000210B64E08AE00E94210B84E10E94340B5A
:1018A000B7018C2F0E94E30A63E082E00E94210BC3
:1018B000C8E8D3E18AE00E94170B82FD04C021979B
:1018C000C9F784E00FC060E082E00E94210B84E44D
:1018D0000E94170BF801808382E40E94170BF80125
:1018E000818381E0DF91CF911F910F91FF90EF9065
:1018F00008952F923F924F925F926F927F928F92B4
:101900009F92AF92BF92CF92DF92EF92FF920F938E
:101910001F93CF93DF93CDB7DEB72B970FB6F89415
:10192000DEBF0FBECDBF6C018CE10E94170B682F8C
:101930006F778CE10E94210BFF24F394AA24A394D7
:10194000B12C22E0F21651F033E0F31661F041E0E1
:10195000F412E9C083E98983712C09C085E9898380
:10196000E3E07E2E04C087E9898376E0772E312C70
:1019700047E0642E50E7552E63E0462E80E2381291
:101980001CC05A829C818B8189279D8189279E81D9
:1019900089278F83AE01485F5F4F67E0CE010196D4
:1019A0000E943C0C813009F0C3C01B864A86FE01B0
:1019B00037964F0129E0222E1FC0932D97709B87E9
:1019C000232D25952595259582E0820F392FF0E16D
:1019D0008F9F300D11243A8331E0911101C030E026
:1019E000232E280E88248394912C8C0E9D1E880E05
:1019F000911C862D821B8A87EB846E2D6295607FF9
:101A00006E0D8AE10E94210B8E01055F1F4F9E0122
:101A1000265F3F4FA401622DCE0101960E943E0B2E
:101A2000833091F58CE10E94170B85FD7AC08F7190
:101A300009F480E2282F30E0432D552747FD5095CB
:101A4000421753070CF06FC0382EC90101978770F9
:101A5000992725952595259531E0320F21E08111B3
:101A600001C020E0230FE1E0F0E0EC0FFD1FE20FEA
:101A7000F11D950102C0220F331F8A95E2F7C901BB
:101A80009081892B80837ACF813009F051C030E278
:101A9000331619F030E2332E74CF8B81883819F069
:101AA00032E024E002C033E023E080E090E0672DE4
:101AB00070E0FC01E60FF71FEC0DFD1D432F480FF2
:101AC000A1E0B0E0AC0FBD1FA40FB11D4C9141834C
:101AD0000196821770F38A85833039F58B858111E1
:101AE00024C0AE014D5F5F4F61E0C4010E943C0C19
:101AF0008130F1F49B81F4018181981318C09C819D
:101B00008281981314C0808182FF02C0F39419CFA0
:101B1000F60183878F2D880FF80EF394F08281E011
:101B200007C083E005C086E003C082E001C088E012
:101B30002B960FB6F894DEBF0FBECDBFDF91CF91CD
:101B40001F910F91FF90EF90DF90CF90BF90AF90DB
:101B50009F908F907F906F905F904F903F902F90CD
:101B60000895EF92FF920F931F93CF93DF93EC01B1
:101B7000FC01E159FF4F0190F081E02D8BEE92E0E6
:101B800019957E0189E6E80EF11CF70180819181AB
:101B90008E0109591F4FF80140815181481B590B93
:101BA0004F5F5F4FBC016E5F7F4F6C0F7D1F0196D3
:101BB0008C0F9D1F0E946E16F70180819181019705
:101BC00091838083F80180819181C80FD91F1A8287
:101BD000019791838083DF91CF911F910F91FF90A7
:101BE000EF900895EF92FF920F931F93CF93DF939F
:101BF000CDB7DEB760970FB6F894DEBF0FBECDBF8E
:101C00007C0190E18E010F5F1F4FD801E92F1D92DB
:101C1000EA95E9F7161617062CF47F936F932EEFCB
:101C200032E00AC061157105A1F0719561957109E5
:101C30007F936F9323EF32E03F932F931F929F93F5
:101C40001F930F930E9400170FB6F894DEBF0FBECC
:101C5000CDBFD701ED91FC91C801199560960FB6E3
:101C6000F894DEBF0FBECDBFDF91CF911F910F91D2
:101C7000FF90EF900895EF92FF920F931F93CF93F1
:101C8000DF93CDB7DEB760970FB6F894DEBF0FBE17
:101C9000CDBF7C011F9281E08F931F9288E68F93C6
:101CA00029EF32E03F932F931F9280E18F938E01B3
:101CB0000F5F1F4F1F930F930E940017D701ED91E5
:101CC000FC91C80119950FB6F894DEBF0FBECDBFC9
:101CD00060960FB6F894DEBF0FBECDBFDF91CF91F7
:101CE0001F910F91FF90EF9008957F928F929F9296
:101CF000AF92BF92CF92DF92EF92FF920F931F931A
:101D0000CF93DF931F921F92CDB7DEB76C017B019B
:101D10005A018C0101591F4FD801ED91FC9181EDC1
:101D200092E0199519821A824601B7E68B0E911C32
:101D300080E2782EF40180819181E816F9069CF406
:101D4000F601EE0DFF1D8281882311F0898301C009
:101D50007982D801ED91FC91CE0101961995BFEFE2
:101D6000EB1AFB0AE7CFC8010E943B0EB501C80180
:101D70000E94F20D0F900F90DF91CF911F910F9164
:101D8000FF90EF90DF90CF90BF90AF909F908F909B
:101D90007F900895E2E0F1E080818064808308957F
:101DA000E2E0F1E080818F7B80830895CF93DF9321
:101DB000C82FD62F80910201662311F0806201C0E6
:101DC0008F7D8093020180910201C7FF02C0806174
:101DD00001C08F7E8093020180910201C6FF02C084
:101DE000886001C0877F80930201C5FF02C0739A9B
:101DF00001C07398C4FF02C0A59A01C0A59800C095
:101E00000E94CA0E82E08A95F1F700C00E94D00EAF
:101E100080910201C3FF02C0806101C08F7E809368
:101E2000020180910201C2FF02C0886001C0877F69
:101E300080930201C1FF02C0739A01C07398C0FF72
:101E400002C0A59A01C0A59800C00E94CA0E92E0E7
:101E50009A95F1F700C00E94D00E80910201806136
:101E60008093020180910201886080930201739A3D
:101E7000A59AD11108C0C43030F48FE999E10197D7
:101E8000F1F700C003C095ED9A95F1F70000DF91DE
:101E9000CF910895CF93DF93FC018491EF012196B8
:101EA000882329F061E00E94D60EFE01F6CFDF9173
:101EB000CF91089560E00C94D60ECF93C0EC8C2F98
:101EC0000E945A0F61E080E20E94D60ECF5FC03DB3
:101ED000B1F7CF91089520910D0430E02F5F3F4F6F
:101EE0002F77332740910C0450E024173507D1F3A6
:101EF000F901E15FFA4F808320930D048091310155
:101F000080628093310108951F920F920FB60F9255
:101F100011240BB60F928F939F93EF93FF939091A1
:101F20000D0480910C04981779F080910C0490E0D6
:101F300001968F77992780930C04FC01E15FFA4F9B
:101F400080818093360105C0809131018F7D80931F
:101F50003101FF91EF919F918F910F900BBE0F90E8
:101F60000FBE0F901F9018951F920F920FB60F92F1
:101F700011240BB60F922F933F934F935F938F9340
:101F80009F93EF93FF932091300130913601287198
:101F900080910B0490E001968F77992740910A0475
:101FA00050E08417950739F080930B04FC01E1574A
:101FB000FB4F308301C022E020938E04FF91EF910C
:101FC0009F918F915F914F913F912F910F900BBEF9
:101FD0000F900FBE0F901F9018952091090430E0CC
:101FE0002F5F3F4F2F7733274091080450E024178D
:101FF0003507D1F3F901E25FFB4F80832093090499
:102000008091C10080628093C1000895909107047F
:10201000809106049817A1F08091060490E0019643
:102020008F77992780930604FC01EA57FC4F2081A3
:102030008091850390E0982F8827820F911D089545
:1020400080E091E008951F920F920FB60F92112435
:102050000BB60F928F939F93EF93FF939091090488
:1020600080910804981779F08091080490E0019617
:102070008F77992780930804FC01E25FFB4F8081F2
:102080008093C60005C08091C1008F7D8093C10000
:10209000FF91EF919F918F910F900BBE0F900FBE0C
:1020A0000F901F9018951F920F920FB60F92112448
:1020B0000BB60F922F933F934F935F938F939F9302
:1020C000EF93FF932091C0003091C600287180915A
:1020D000070490E001968F7799274091060450E01D
:1020E0008417950739F080930704FC01EA57FC4FE9
:1020F000308301C022E020938503FF91EF919F91EF
:102100008F915F914F913F912F910F900BBE0F9048
:102110000FBE0F901F90189520918F05309190055C
:102120002115310521F420911E0230911F0280916A
:102130001C0290911D02009741F48DB79EB740910B
:10214000200250912102841B950B2817390718F49F
:10215000821B930B089580E090E0089520918F05F5
:102160003091900521153105D9F080911E02909192
:102170001F02281B390BE0919105F09192058EEF1B
:102180009FEF309759F040815181BC01641B750B62
:10219000260F371F0280F381E02DF3CFC901089588
:1021A00080E090E00895FC010FB6F89460919905E5
:1021B00070919A0580919B0590919C050FBE309778
:1021C00021F0608371838283938308958F938FB707
:1021D0008F93F894809199058F5F809399058091F2
:1021E0009A058F4F80939A0580919B058F4F80931E
:1021F0009B0580919C058F4F80939C058F918FBF8D
:102200008F910895CF93DF93CDB7DEB762970FB666
:10221000F894DEBF0FBECDBF0B9A1398099A1198A0
:1022200010922001109221018091210188608093F9
:10223000210188E09DE390932901809328018091FA
:1022400021018560809321018091730082608093D9
:102250007300789410920D0410920C0410920B04E9
:1022600010920A0410923501A7E6FA2EF09234017A
:1022700008E90093310116E01093320180E092E00A
:1022800090939805809397052AEE36E03F932F931D
:102290009F938F930E94A7168AEB96E09F938F934C
:1022A000809198058F93809197058F930E94A71630
:1022B0001092090410920804109207041092060468
:1022C0001092C500F092C4000093C1001093C200A8
:1022D0008EE092E0909396058093950590939405F7
:1022E0008093930526E837E03F932F939F938F9336
:1022F0000E94A71686E297E09F938F9380919605A0
:102300008F93809195058F930E94A71645E650E024
:1023100060E070E086E093E00E94801610926C030B
:1023200010926B0310926E0310926D031092700363
:1023300010926F0310927203109271038DEC92E071
:10234000909305038093040389E995E090937403C7
:10235000809373038DEC92E00E94990582EC96E0E5
:102360009093700380936F03809101018064809348
:10237000010180910101806280930101809101013E
:102380008061809301018091010188608093010147
:102390006B9A9D9A0E94D00E809102018F7D80934E
:1023A000020180910201806180930201809102010B
:1023B000886080930201739AA59A8FE59AEE01973F
:1023C000F1F700C00000809102018F7E809302012E
:1023D00080910201877F8093020100C00E94CA0E93
:1023E00092E09A95F1F700C00E94D00EEFE0F0E481
:1023F0003197F1F700C000000E94CA0EF2E0FA9592
:10240000F1F700C00E94D00E8FE891E00197F1F73C
:1024100000C000000E94CA0E92E09A95F1F700C039
:102420000E94D00EE5EDEA95F1F70000A59800C0F6
:102430000E94CA0EF2E0FA95F1F700C00E94D00E99
:1024400025ED2A95F1F70000A59800C00E94CA0E5C
:1024500032E03A95F1F700C00E94D00E42E04A9572
:10246000F1F700C08091020180618093020100C0F9
:102470000E94CA0E52E05A95F1F700C00E94D00E99
:1024800085ED8A95F1F7000088E00E945A0F81E0FF
:102490000E945A0F86E00E945A0F8CE00E945A0F49
:1024A00084E997E00E944A0F209A289A80910A01B5
:1024B000816080930A0180910B01816080930B0100
:1024C0000FB6F894DEBF0FBECDBF0CB406FC06C03D
:1024D000219A229A239881E58CBD1DBC80910B0125
:1024E00080FD33C080910B01816080930B0184EFEC
:1024F00091E020E931E0F9013197F1F70197D9F73F
:1025000060E884E50E94210B69EA86E50E94210BC0
:1025100063E088E50E94210B68EE8AE50E94210BAA
:1025200060E48AE20E94210B6DE382E20E94210BAB
:1025300088E20E94170B982F93709330E9F0682F70
:10254000636088E20E94210B17C06FE082E00E9466
:10255000210B84EF91E020E931E0F9013197F1F7A7
:102560000197D9F708E813E182E00E94170B84FF76
:10257000C7CF01501109C1F7F8E0FF2E01EA17E0BB
:1025800080E090E00E94D3104B015C0180917703C2
:1025900090917803A0917903B0917A0388169906F7
:1025A000AA06BB06F1F082B18F2582B9BF92AF9225
:1025B0009F928F921F930F93809198058F93809194
:1025C00097058F930E94A7168092770390927803C5
:1025D000A0927903B0927A030FB6F894DEBF0FBED3
:1025E000CDBF0E94061099279A8B898B8B3091055D
:1025F00009F48CC0DCF48530910509F497C04CF4E3
:102600008130910509F4A5C08230910509F4C2C05A
:10261000E9C08830910509F4D4C08A30910509F4E5
:1026200026C18630910509F49DC0DCC0803191053A
:1026300009F41DC144F48D30910591F08E3091055F
:1026400009F415C1CFC08B31910509F410C18F3742
:10265000910509F4B6C08531910509F448C0C2C09E
:10266000E0917303F09174038FEC92E019956091FF
:102670006B0370916C0320E030E080E090E0F901A2
:10268000EC5FFC4F4281411109C0261737070CF05F
:10269000BCC12F5F3F4FAC01CA01F1CF26173707EE
:1026A0000CF0B3C1AC014F5F5F4F880F991FE1E0A1
:1026B000F0E0EC0FFD1FE80FF91FC9018A5F9C4F86
:1026C00091838083483051050CF077C1F901EC5FAC
:1026D000FC4F8281882339F02617370709F4A2C1FD
:1026E0002F5F3F4FF3CF26173707B4F29BC14091BE
:1026F0006D0350916E03141615062CF484E093E0DC
:102700000E94B10DF4CF60E070E0ADC0E0917303C2
:10271000F091740381ED92E0199580916D03909191
:102720006E0390936C0380936B03A1C060916B0365
:1027300070916C0380916D0390916E03681B790B0F
:1027400083E793E00E94F20D80916B0390916C03FC
:1027500033C083E793E00E943B0E10926E03109209
:102760006D0385C020916D0330916E0380916B03E2
:1027700090916C03281739070CF079C061E070E084
:1027800083E793E00E94F20D80916D0390916E03B8
:10279000019612C080916D0390916E03892B09F40C
:1027A00066C06FEF7FEF83E793E00E94F20D8091A8
:1027B0006D0390916E03019790936E0380936D0368
:1027C00056C080916D0390916E031816190624F47B
:1027D00084E093E00E94B10D60916D0370916E03EF
:1027E000AB0141C08032910539F480916B03909127
:1027F0006C03892B19F43BC08097CCF140916B039B
:1028000050916C034436510594F580916D0390917D
:102810006E03481B590BBC016A5F7C4F895F9C4F5C
:102820000E946E1660916D0370916E038989FB01A1
:10283000EC5FFC4F803211F0828301C01282AB0149
:102840004F5F5F4F50936E0340936D0380916B0316
:1028500090916C03019690936C0380936B03FC0141
:10286000EC5FFC4F128284E093E00E94750EA09012
:102870007B03B0907C030E94FC0B882309F451C0B9
:10288000CE0101960E94790C80E090E00E94D31066
:102890002B013C018980912CA114B10481F1A40188
:1028A000BE016E5F7F4FC50105960E945816892BA9
:1028B00011F54092810350928203609283037092DB
:1028C000840340927D0350927E0360927F03709256
:1028D0008003119A0E945D0F80EC0E945A0FF5014F
:1028E000A180B280F50181915F018823D1F061E080
:1028F0000E94D60EF7CFF501A380B480CDCF1198FA
:102900000E945D0F80EC0E945A0F80EB97E00E94BE
:102910004A0F40927D0350927E0360927F03709233
:10292000800380E090E00E94D3108090810390901B
:102930008203A0908303B090840381149104A104C6
:10294000B104B9F09B01AC01281939094A095B09A6
:1029500049015A0133E083169104A104B10448F0FF
:1029600011981092810310928203109283031092A7
:10297000840380907D0390907E03A0907F03B090AD
:10298000800381149104A104B10409F4F9CDDC01A0
:10299000CB0188199909AA09BB090697A105B105B8
:1029A00008F4EECD0E945D0F10927D0310927E031D
:1029B00010927F0310928003E3CDE0917303F091B6
:1029C000740385ED92E01995E0917303F09174031F
:1029D0008FEC92E01995E0917303F091740380916C
:1029E000040390910503199510926C0310926B03E8
:1029F00010926E0310926D0345E650E060E070E0C7
:102A000086E093E00E94801632CF009721F3E09198
:102A10006F03F09170033097F1F2BE016F5F7F4F4B
:102A20001995D9CFCA01F3CFCF93DF9382309105A7
:102A300010F482E090E0E0919105F091920520E0A1
:102A400030E0C0E0D0E0309711F14081518148176B
:102A50005907C0F04817590761F482819381209784
:102A600019F09B838A832BC09093920580939105E4
:102A700026C02115310519F04217530718F49A01A1
:102A8000BE01DF01EF010280F381E02DDCCF2115D3
:102A9000310509F1281B390B2430310590F41296C9
:102AA0008D919C9113976115710521F0FB01938322
:102AB000828304C09093920580939105FD01329624
:102AC00044C0FD01E20FF31F81939193225031091D
:102AD0002D933C933AC020918F0530919005232B84
:102AE00041F420911E0230911F02309390052093F3
:102AF0008F0520911C0230911D022115310541F4F2
:102B00002DB73EB74091200250912102241B350B76
:102B1000E0918F05F0919005E217F307A0F42E1BCA
:102B20003F0B2817390778F0AC014E5F5F4F241731
:102B3000350748F04E0F5F1F5093900540938F0567
:102B40008193919302C0E0E0F0E0CF01DF91CF915B
:102B500008950F931F93CF93DF93009709F48CC0D0
:102B6000FC01329713821282009191051091920517
:102B70000115110581F420813181820F931F20916D
:102B80008F05309190052817390779F5F093900556
:102B9000E0938F0571C0D80140E050E0AE17BF0749
:102BA00050F412962D913C911397AD0121153105EA
:102BB00009F1D901F3CF9D01DA01338322836081CA
:102BC0007181860F971F8217930769F4EC012881A2
:102BD0003981260F371F2E5F3F4F318320838A8133
:102BE0009B8193838283452B29F4F0939205E09394
:102BF000910542C01396FC93EE931297ED01499113
:102C000059919E01240F351FE217F30771F480815B
:102C10009181840F951F029611969C938E938281C9
:102C2000938113969C938E931297E0E0F0E0D80185
:102C300012968D919C911397009719F0F8018C01D1
:102C4000F6CF8D919C9198012E5F3F4F820F931F7D
:102C500020918F05309190052817390769F4309736
:102C600029F4109292051092910502C013821282EB
:102C70001093900500938F05DF91CF911F910F91D5
:102C80000895FB01DC018D91059080190110D9F3A5
:102C9000990B0895FB01DC014150504030F08D91BB
:102CA0000590801919F40020B9F7881B990B089535
:102CB000FB01DC0104C08D910190801921F4415089
:102CC0005040C8F7881B990B0895FB01DC0102C036
:102CD00001900D9241505040D8F708956817790738
:102CE00068F4FB01DC01E40FF51FA40FB51F02C05F
:102CF00002900E9241505040D8F708950C946516FA
:102D0000DC0101C06D9341505040E0F70895FB0194
:102D1000DC0101900D920020E1F70895FC01019083
:102D20000020E9F7809590958E0F9F1F0895CF930F
:102D3000DF93CDB7DEB7AE01465F5F4F688579851B
:102D40008E819F810E943D17DF91CF9108950F934F
:102D50001F93CF93DF93CDB7DEB708851985F801B0
:102D6000838188608383AE01445F5F4F6A857B8582
:102D7000C8010E943D17F8012381277F2383DF913B
:102D8000CF911F910F910895CF93DF93CDB7DEB709
:102D9000AE014A5F5F4FFA0161917191AF0180917D
:102DA0009505909196050E943D17DF91CF9108956A
:102DB0000F931F93CF93DF93CDB7DEB7AE01485F7C
:102DC0005F4FDA016D917D91AD0103E915E0F801E6
:102DD00082819381DC0113962C91139728601396BE
:102DE0002C930E943D17D8011296ED91FC911397F8
:102DF0002381277F2383DF91CF911F910F91089526
:102E00000F931F93CF93DF93CDB7DEB72E970FB6F7
:102E1000F894DEBF0FBECDBF0E891F89888D998DB6
:102E200026E02C831A83098397FF02C080E090E894
:102E300001979E838D83AE01445E5F4F6A8D7B8DCB
:102E4000CE0101960E943D174D815E8157FD0AC05B
:102E50002F813885421753070CF49A01F801E20FCD
:102E6000F31F10822E960FB6F894DEBF0FBECDBFB3
:102E7000DF91CF911F910F9108952F923F924F9222
:102E80005F926F927F928F929F92AF92BF92CF92FA
:102E9000DF92EF92FF920F931F93CF93DF93CDB703
:102EA000DEB72C970FB6F894DEBF0FBECDBF7C0106
:102EB0006B018A01FC0117821682838181FFBDC1EB
:102EC000CE0101964C01F7019381F60193FD8591A6
:102ED00093FF81916F01882309F4ABC1853239F4E6
:102EE00093FD859193FF81916F01853229F4B7019C
:102EF00090E00E944E19E7CF512C312C20E0203277
:102F0000A0F48B3269F030F4803259F0833269F4E6
:102F100020612CC08D3239F0803339F4216026C015
:102F20002260246023C0286021C027FD27C030ED27
:102F3000380F3A3078F426FF06C0FAE05F9E300D75
:102F40001124532E13C08AE0389E300D1124332EE5
:102F500020620CC08E3221F426FD6BC1206406C0B5
:102F60008C3611F4206802C0883641F4F60193FDD6
:102F7000859193FF81916F018111C1CF982F9F7D22
:102F80009554933028F40C5F1F4FFFE3F9830DC075
:102F9000833631F0833771F0833509F05BC022C08E
:102FA000F801808189830E5F1F4F44244394512C84
:102FB000540115C03801F2E06F0E711CF801A080B9
:102FC000B18026FF03C0652D70E002C06FEF7FEF78
:102FD000C5012C870E9443192C0183012C852F7772
:102FE000222E17C03801F2E06F0E711CF801A0808C
:102FF000B18026FF03C0652D70E002C06FEF7FEF48
:10300000C5012C870E9438192C012C852068222E9E
:10301000830123FC1BC0832D90E048165906B0F4B1
:10302000B70180E290E00E944E193A94F4CFF50186
:1030300027FC859127FE81915F01B70190E00E94F6
:103040004E1931103A94F1E04F1A510841145104CD
:1030500071F7E5C0843611F0893639F5F80127FF9C
:1030600007C060817181828193810C5F1F4F08C00E
:1030700060817181882777FD8095982F0E5F1F4FA3
:103080002F76722E97FF09C0909580957095619567
:103090007F4F8F4F9F4F2068722E2AE030E0A401AF
:1030A0000E948619A82EA81844C0853729F42F7EBF
:1030B000B22E2AE030E025C0F22FF97FBF2E8F36E6
:1030C000C1F018F4883579F0B4C0803719F088372A
:1030D00021F0AFC02F2F2061B22EB4FE0DC08B2D7A
:1030E0008460B82E09C024FF0AC09F2F9660B92EB5
:1030F00006C028E030E005C020E130E002C020E159
:1031000032E0F801B7FE07C060817181828193814E
:103110000C5F1F4F06C06081718180E090E00E5F00
:103120001F4FA4010E948619A82EA818FB2DFF7717
:103130007F2E76FE0BC0372D3E7FA51450F474FE13
:103140000AC072FC08C0372D3E7E05C0BA2C372D50
:1031500003C0BA2C01C0B52C34FF0DC0FE01EA0D2E
:10316000F11D8081803311F4397E09C032FF06C021
:10317000B394B39404C0832F867809F0B39433FDDD
:1031800013C030FF06C05A2CB31418F4530C5B184C
:10319000B32CB31468F4B70180E290E03C870E943E
:1031A0004E19B3943C85F5CFB31410F43B1801C00D
:1031B000312C34FF12C0B70180E390E03C870E94BD
:1031C0004E193C8532FF17C031FD03C088E790E0FF
:1031D00002C088E590E0B7010CC0832F867859F0D3
:1031E00031FF02C08BE201C080E237FD8DE2B70102
:1031F00090E00E944E19A51438F4B70180E390E0E6
:103200000E944E195A94F7CFAA94F401EA0DF11DC9
:103210008081B70190E00E944E19A110F5CF3320B4
:1032200009F451CEB70180E290E00E944E193A9421
:10323000F6CFF7018681978102C08FEF9FEF2C9622
:103240000FB6F894DEBF0FBECDBFDF91CF911F91B7
:103250000F91FF90EF90DF90CF90BF90AF909F9035
:103260008F907F906F905F904F903F902F90089538
:10327000FC010590615070400110D8F78095909541
:103280008E0F9F1F0895FC01615070400190011046
:10329000D8F7809590958E0F9F1F08950F931F93D9
:1032A000CF93DF93FB01238121FD03C08FEF9FEFBD
:1032B00028C022FF16C046815781248135814217DC
:1032C000530744F4A081B1819D012F5F3F4F3183AB
:1032D00020838C93268137812F5F3F4F378326834E
:1032E00010C0EB01092F182F0084F185E02D1995EE
:1032F000892BE1F68E819F8101969F838E83812F9A
:10330000902FDF91CF911F910F910895FA01AA2775
:10331000283051F1203181F1E8946F936E7F6E5F18
:103320007F4F8F4F9F4FAF4FB1E03ED0B4E03CD0C6
:10333000670F781F891F9A1FA11D680F791F8A1FA9
:10334000911DA11D6A0F711D811D911DA11D20D010
:1033500009F468943F912AE0269F11243019305DCA
:103360003193DEF6CF010895462F4770405D4193BB
:10337000B3E00FD0C9F7F6CF462F4F70405D4A3308
:1033800018F0495D31FD4052419302D0A9F7EACFD0
:10339000B4E0A6959795879577956795BA95C9F7FF
:1033A00000976105710508959B01AC010A2E0694F2
:1033B0005795479537952795BA95C9F7620F731FAB
:0C33C000841F951FA01D0895F894FFCFF6
:1033CC0000000002000000000304000000000000E8
:1033DC000003000000002B040E04000000009D05FB
:1033EC002000C202B902840600B102A002730600DA
:1033FC009A02870264040081024502640A014002B9
:10340C001D021B06001702F901A60500F501B30108
:10341C00D80802B0017E013408017A014201290763
:10342C0000253032580025632000256300223078B7
:10343C0025303278220025642E0020686F6C64657C
:10344C0072206E616D653A202573005549442073D6
:10345C00697A653A203078253032580A005549444B
:10346C002073616B3A203078253032580A0020687E
:10347C006F6C646572206E616D653A2025730A006D
:10348C00202825642062797465732920003E000D84
:10349C00001B5B4B004552524F523A746F6F206DBC
:1034AC00616E7920746F6B656E73001B5B44201B1F
:1034BC005B44001B5B256444001B5B2564441B5B65
:0434CC002564430030
:00000001FF
